:100000000C9434000C9451000C9451000C94510049
:100010000C9451000C9451000C9451000C9451001C
:100020000C9451000C9451000C9451000C9451000C
:100030000C9451000C9451000C9451000C945100FC
:100040000C9451000C9451000C9451000C945100EC
:100050000C9451000C9451000C9451000C945100DC
:100060000C9451000C94510011241FBECFEFD8E026
:10007000DEBFCDBF11E0A0E0B1E0E0EFFEE002C0E6
:1000800005900D92A632B107D9F721E0A6E2B1E0C2
:1000900001C01D92AC3CB207E1F70E94D0010C9464
:1000A00076070C940000FC019DEC699F912D1124B2
:1000B00096959695969580E3890F8083990F892F61
:1000C000880F880F980F691B605D61831282089505
:1000D000EF92FF920F931F93CF93DF938C01EB016D
:1000E0009B013695279536952795ABE7B4E10E949D
:1000F00067077C01F694E7946E2DC8010E945300B7
:1001000024E62E9DC0012F9D900D1124BE01681B79
:10011000790BC80102960E945300F8011482DF9106
:10012000CF911F910F91FF90EF900895CF93DF93A0
:10013000C3E6D1E0EF89F88DCE0109958D859E85C6
:10014000909327018093260191FF0DC02DE220930B
:100150008C0120E034E0A901481B590B5093270182
:100160004093260103C08BE280938C018091720141
:1001700090917301909362018093610191FF0DC092
:100180002DE22093470120E034E0A901481B590BE0
:10019000509362014093610103C08BE28093470159
:1001A0008091740190917501909349018093480169
:1001B00091FF0DC02DE22093600120E034E0A90101
:1001C000481B590B509349014093480103C08BE2EF
:1001D00080936001C8E2D1E0E989FA8942E060E0F9
:1001E000CE010995ED89FE8960918C01CE010995BA
:1001F0006091260170912701E98DFA8DCE01099554
:10020000E989FA894AE060E0CE010995ED89FE8925
:1002100060914701CE010995609161017091620181
:10022000E98DFA8DCE010995E989FA8942E061E00C
:10023000CE010995ED89FE8960916001CE01099595
:100240006091480170914901E98DFA8DCE010995BF
:10025000DF91CF9108950F931F93CF93DF930DE814
:1002600011E0D8015696ED91FC915797C801099578
:10027000D8015896ED91FC915997C8010995CDEA9E
:10028000D1E0E989FA8940E060E0CE010995F80102
:10029000668570E0762F66278785682B8CE791E06E
:1002A0000E946800EB8DFC8D6CE771E0CE01099532
:1002B000ED89FE896EE2CE010995D80150966C91C8
:1002C0008CE791E00E945300EB8DFC8D6CE771E0B0
:1002D000CE010995ED8DFE8D60E171E0CE010995AD
:1002E000D8015A96ED91FC915B97C8010995D80108
:1002F0005C96ED91FC915D97C8010995E989FA89B1
:1003000040E061E0CE010995F80161898CE791E058
:100310000E945300EB8DFC8D6CE771E0CE010995D6
:10032000ED89FE896EE2CE010995D80152966C9155
:100330008CE791E00E945300EB8DFC8D6CE771E03F
:10034000CE010995ED89FE896FEDCE010995ED8904
:10035000FE8963E4CE010995DF91CF911F910F9142
:1003600008950F931F93CF93DF93062F142FCAE4A2
:10037000D1E0EA89FB89482F60E0CE010995EA893E
:10038000FB89402F61E0CE010995EA89FB89412F65
:1003900062E0CE010995DF91CF911F910F910895F1
:1003A0000E94380400E020E540E064E788E291E044
:1003B0000E944B0520E543E064E78DEA91E00E944E
:1003C0004B052DE141E064E783E691E00E943A07A6
:1003D0002CE541E064E78DE891E00E94B30622E657
:1003E00042E064E78AE491E00E94CF05C8E2D1E0F0
:1003F000EF85F889CE010995E091BC01F091BD012E
:100400008DEA91E00995E0917601F091770183E61C
:1004100091E00995E091A101F091A2018DE891E0B0
:100420000995E0915601F09157014AEA60E08AE4AB
:1004300091E00995E989FA8940E060E0CE010995EB
:10044000ED8DFE8D64E171E0CE010995E989FA89AF
:1004500048E060E0CE010995ED8DFE8D67E171E029
:10046000CE010995E989FA8940E061E0CE0109955C
:10047000ED8DFE8D6AE171E0CE010995E989FA8979
:1004800048E061E0CE010995ED8DFE8D6DE171E0F2
:10049000CE010995CFEF0E9496000E942B0180911A
:1004A0002601909127018F3F910511F008F08C2FC4
:1004B00060916101709162016F3F710511F008F068
:1004C0006C2F40914801509149014F3F510511F067
:1004D00008F04C2F0E94B10184E690E00E943B049A
:1004E000DACF94EA9093BC00ECEBF0E09081992392
:1004F000ECF79091B900987F9830D9F4880F862B4B
:100500008093BB0084E88093BC00ECEBF0E080813A
:100510008823ECF79091B900987F611105C081E0C4
:10052000983141F480E0089581E0903419F480E03E
:10053000089581E0089594EA9093BC00ECEBF0E01C
:1005400090819923ECF79091B900987F9031D9F47C
:10055000880F862B8093BB0084E88093BC00ECEB73
:10056000F0E080818823ECF79091B900987F6111C9
:1005700005C081E0983141F480E0089581E0903435
:1005800019F480E0089581E0089584E98093BC0027
:10059000ECEBF0E0808184FDFDCF08958093BB00FB
:1005A00084E88093BC00ECEBF0E080818823ECF7DA
:1005B0009091B900987F81E0983209F480E0089525
:1005C000811104C084E88093BC0003C084EC809354
:1005D000BC00ECEBF0E080818823ECF78091BB005D
:1005E0009091B9000895E9EBF0E080818C7F8083E1
:1005F00088E48093B8000895009741F0EFECF7E0AD
:100600003197F1F700C000000197C1F70895EF920C
:10061000FF920F931F93CF93DF937B01142F022F31
:10062000882324F4111112C0D0E01BC020FF05C0A4
:1006300060E00E949B02D82F04C060E00E9471021B
:10064000D82FDD2379F30E94C5020EC0C0E0F70168
:1006500080810E94CE02D82F811103C0CF5FC113C9
:10066000F6CF01FF0E94C5028D2FDF91CF911F9120
:100670000F91FF90EF900895BF92CF92DF92EF928B
:10068000FF920F931F93CF93DF9300D0CDB7DEB7C8
:100690008C017B016A01B22E6A83FC018081882370
:1006A000A1F09181937021E030E002C0220F331F4E
:1006B0009A95E2F7298320E041E0BE016F5F7F4F0A
:1006C0000E940703898381111AC0EF20E09471F022
:1006D00022E041E0BE016E5F7F4FF80182810E94FF
:1006E000070381110CC08FEF898303C0F801828159
:1006F000898320E04B2DB60189810E9407030F906A
:100700000F90DF91CF911F910F91FF90EF90DF90AD
:10071000CF90BF900895CF93DF931F92CDB7DEB7F0
:10072000498321E0AE014F5F5F4F0E943C030F9071
:10073000DF91CF910895AF92BF92CF92DF92EF9267
:10074000FF920F931F93CF93DF9300D0CDB7DEB707
:100750008C015B016A01F22E6983FC018081882390
:10076000A1F09181937021E030E002C0220F331F8D
:100770009A95E2F72A8320E041E0BE016E5F7F4F49
:100780000E9407038A8381114AC0AB20A09409F418
:1007900041C022E041E0BE016F5F7F4FF8018281DE
:1007A0000E9407038A83882359F139C0112321F05D
:1007B0000E94C502812F33C0F1E0FF1598F4860135
:1007C000FA94FA942F2D30E02F5F3F4FC20ED31EC4
:1007D000760181E00E94E002F80181938F01EE151D
:1007E000FF05B9F780E00E94E002F60180830E94D5
:1007F000C50280E014C061E00E949B02182FD6CF92
:10080000F80182818823BCF7D7CF61E00E94710292
:10081000182FCCCFF80182818823BCF7CDCF0F9061
:100820000F90DF91CF911F910F91FF90EF90DF908C
:10083000CF90BF90AF90089521E00E949B03089550
:100840000F93FC0160834183228303838CE393E055
:10085000958384838BE893E0978386838BE993E089
:10086000918780878CE194E0938782870F91089528
:100870000E94F30208950E94FC020895FC014F704B
:10088000448761706587611102C0168602C080E4EA
:1008900086878685482B468708950F931F93CF93AD
:1008A000DF93EC01162F6A3041F06D3069F440E0BF
:1008B0006D850E943E0400E020C06D856F5F40E0C2
:1008C0000E943E0400E019C04E854068EE81FF8121
:1008D00060E070E00995082F8F3F79F0EE81FF818D
:1008E000412F60E870E0CE010995082F4C854F5FDD
:1008F000E989FA896D85CE010995802FDF91CF9125
:100900001F910F9108950F931F93CF93DF938C0145
:10091000C62FA62FA295AF70B0E0A050BF4FFC012C
:10092000258936896C91F90109958F3F59F0CF706F
:10093000AC2FB0E0A050BF4FE801ED89FE896C916B
:10094000C8010995DF91CF911F910F9108951F93D1
:10095000CF93DF93EC01162FEF89F88D672F099560
:100960008F3F29F0EF89F88D612FCE010995DF9136
:10097000CF911F9108950F931F93CF93DF938C0115
:10098000EB0180E009C0D8015596ED91FC91569796
:10099000C80109958F3F19F069916111F4CFDF917A
:1009A000CF911F910F9108950F931F93CF93DF93D2
:1009B0008C01EB0180E009C0D8015596ED91FC91C6
:1009C0005697C80109958F3F19F069916111F4CFCD
:1009D000DF91CF911F910F9108951F93CF93DF93D4
:1009E000EC01EE81FF8141E060E070E00995182F95
:1009F0008F3F51F085E090E00E943B04E989FA893D
:100A000040E060E0CE010995812FDF91CF911F91E9
:100A10000895CF93DF93EC018FE090E00E943B04B8
:100A2000EE81FF8148E360E070E0CE0109958F3FE1
:100A300079F185E090E00E943B04EE81FF814CE07B
:100A400060E070E0CE0109958F3F11F185E090E004
:100A50000E943B04EE81FF8141E060E070E0CE0146
:100A600009958F3FA9F085E090E00E943B04EE815C
:100A7000FF8142E060E070E0CE0109958F3F41F0D8
:100A800085E090E00E943B04EB89FC89CE0109954A
:100A9000DF91CF9108950F93FC011486158689E0AC
:100AA00095E0908B87878EE394E0928B818B8DEE1F
:100AB00094E0948B838B8DE494E0968B858B83E814
:100AC00094E0908F878B87EA94E0928F818F8BEBF5
:100AD00094E0948F838F84ED94E0968F858FCF017F
:100AE0000E9420040F910895462FDC011696ED9187
:100AF000FC91179761E070E009950895462FDC019D
:100B00001696ED91FC91179768E070E009950895AD
:100B10000F931F93CF93DF93EC01162F042FEE81D9
:100B2000FF8140E060E070E009958F3F59F0612F50
:100B3000CE010E9474058F3F39F0602FCE010E94D4
:100B40007E0503C08FEF01C08FEFDF91CF911F9122
:100B50000F910895637070E06E5F7F4FDC01169611
:100B6000ED91FC911797099508951F93CF93DF930B
:100B7000EC01142FEE81FF81462F66E070E00995AD
:100B80008F3F41F0EE81FF81412F67E070E0CE01A1
:100B9000099501C08FEFDF91CF911F9108950F93B9
:100BA000FC0188E895E09587848784E795E097873E
:100BB00086878EE795E0918B808B8AEA95E0938B10
:100BC000828B85EB95E0958B848BCF010E9420046E
:100BD0000F910895CF93DF93EC01AC01445F5F4F19
:100BE000EA85FB856FE070E0099581110CC08C856A
:100BF0008D3B41F4EE81FF8140E960E270E0CE017F
:100C0000099501C080E0DF91CF9108950F931F9364
:100C1000CF93DF938C01C8E2D0E0AE014A51510975
:100C2000400F511FD8011A96ED91FC911B97BE0100
:100C3000C8010995811104C02196CB32D10569F70D
:100C4000DF91CF911F910F910895FC019785292F76
:100C50002F7030E0322F22278685282B84E6829F52
:100C6000A001839F500D1124808960E1869F90012F
:100C7000112492959F70922B978782958F7086870B
:100C8000852F82958F70808B0895CF93DF93EC0131
:100C9000AC014F5E5F4FEA85FB856BE270E0099522
:100CA000811109C0AE014E5E5F4FEA85FB856CE2A3
:100CB00070E0CE010995DF91CF9108950F931F93B6
:100CC000CF93DF93FC01428950E0542F4427818960
:100CD000482BCA0190588035904338F420E530EB1A
:100CE000241B350BC0E8D0E005C09A012055304BDD
:100CF000C0E0D0E000EE11E0C901B8010E94530746
:100D0000CB018F7799278C0F9D1F818B809FA0012E
:100D1000819F500D909F500D1124C901841B950B8C
:100D20009C01220F331F220F331F280F391FABEAFC
:100D3000BAEA0E946707929582958F7089279F7003
:100D40008927828BDF91CF911F910F910895AC017C
:100D5000435F5F4FDC011A96ED91FC911B9767E2B0
:100D600070E0099508950F93FC018AEE95E0958B4C
:100D7000848B86E096E0978B868B85E296E0918F58
:100D8000808F85E496E0938F828F8EE596E0958F35
:100D9000848F87EA96E0978F868FCF010E94200488
:100DA0000F910895DC011696ED91FC91179748E09C
:100DB0006DE270E009950895AC01445F5F4FDC017E
:100DC0001A96ED91FC911B9760E070E009950895EB
:100DD0000F931F93CF93DF9300D0CDB7DEB78C0175
:100DE000DC011896ED91FC91199722E0AE014F5F5E
:100DF0005F4F62E370E009958A81837090E0982FDD
:100E000088272981822BF801968785870084F185C0
:100E1000E02D22E0AE014F5F5F4F64E370E0C80158
:100E200009958A81837090E0982F88272981822BE9
:100E3000D80150969C938E931F971896ED91FC9134
:100E4000199722E0AE014F5F5F4F66E370E0C80183
:100E500009958A81837090E0982F88272981822BB9
:100E6000F801928B818B0F900F90DF91CF911F91A2
:100E70000F9108950F93FC0116861586108A178628
:100E8000128A118A82ED96E0948B838B8CED96E02A
:100E9000968B858B88EE96E0908F878BCF010E9492
:100EA00020040F910895AA1BBB1B51E107C0AA1F84
:100EB000BB1FA617B70710F0A61BB70B881F991FFB
:100EC0005A95A9F780959095BC01CD010895A29FF0
:100ED000B001B39FC001A39F700D811D1124911D0E
:100EE000B29F700D811D1124911D0895F894FFCFBC
:100EF0003031323334353637383941424344454650
:100F000068506100583A00593A005A3A0041445832
:060F10004C3334350000F3
:00000001FF
