:020000040000fa
:080000000002040000000000f2
:020000040000fa
:040008000c030000e5
:020000040000fa
:04000c000c030000e1
:020000040000fa
:040010000c030000dd
:020000040000fa
:040014000c030000d9
:020000040000fa
:040018000c030000d5
:020000040000fa
:04001c000c030000d1
:020000040000fa
:040020000c030000cd
:020000040000fa
:040024000c030000c9
:020000040000fa
:040028000c030000c5
:020000040000fa
:04002c000c030000c1
:020000040000fa
:040030000c030000bd
:020000040000fa
:040034000c030000b9
:020000040000fa
:040038000c030000b5
:020000040000fa
:04003c000c030000b1
:020000040000fa
:040040000c030000ad
:020000040000fa
:040044000c030000a9
:020000040000fa
:040048000c030000a5
:020000040000fa
:04004c000c030000a1
:020000040000fa
:040050000c0300009d
:020000040000fa
:040054000c03000099
:020000040000fa
:040058000c03000095
:020000040000fa
:04005c000c03000091
:020000040000fa
:040060000c0300008d
:020000040000fa
:040064000c03000089
:020000040000fa
:040068000c03000085
:020000040000fa
:04006c000c03000081
:020000040000fa
:040070000c0300007d
:020000040000fa
:040074000c03000079
:020000040000fa
:040078000c03000075
:020000040000fa
:04007c000c03000071
:020000040000fa
:040080000c0300006d
:020000040000fa
:040084000c03000069
:020000040000fa
:040088000c03000065
:020000040000fa
:04008c000c03000061
:020000040000fa
:040090000c0300005d
:020000040000fa
:040094000c03000059
:020000040000fa
:040098000c03000055
:020000040000fa
:04009c000c03000051
:020000040000fa
:0400a0000c0300004d
:020000040000fa
:0400a4000c03000049
:020000040000fa
:0400a8000c03000045
:020000040000fa
:0400ac000c03000041
:020000040000fa
:0400b0000c0300003d
:020000040000fa
:0400b4000c03000039
:020000040000fa
:0400b8000c03000035
:020000040000fa
:0400bc000c03000031
:020000040000fa
:0400c0000c0300002d
:020000040000fa
:0400c4000c03000029
:020000040000fa
:0400c8000c03000025
:020000040000fa
:0400cc000c03000021
:020000040000fa
:0400d0000c0300001d
:020000040000fa
:0400d4000c03000019
:020000040000fa
:0400d8000c03000015
:020000040000fa
:0400dc000c03000011
:020000040000fa
:0400e0000c0300000d
:020000040000fa
:0400e4000c03000009
:020000040000fa
:0400e8000c03000005
:020000040000fa
:0400ec000c03000001
:020000040000fa
:0400f0000c030000fd
:020000040000fa
:0400f4000c030000f9
:020000040000fa
:0400f8000c030000f5
:020000040000fa
:0400fc000c030000f1
:020000040000fa
:040100000c030000ec
:020000040000fa
:040104000c030000e8
:020000040000fa
:040108000c030000e4
:020000040000fa
:04010c000c030000e0
:020000040000fa
:040110000c030000dc
:020000040000fa
:040114000c030000d8
:020000040000fa
:040118000c030000d4
:020000040000fa
:04011c000c030000d0
:020000040000fa
:040120000c030000cc
:020000040000fa
:040124000c030000c8
:020000040000fa
:040128000c030000c4
:020000040000fa
:04012c000c030000c0
:020000040000fa
:040130000c030000bc
:020000040000fa
:040134000c030000b8
:020000040000fa
:040138000c030000b4
:020000040000fa
:04013c000c030000b0
:020000040000fa
:040140000c030000ac
:020000040000fa
:040144000c030000a8
:020000040000fa
:040148000c030000a4
:020000040000fa
:04014c000c030000a0
:020000040000fa
:040150000c0300009c
:020000040000fa
:040154000c03000098
:020000040000fa
:040158000c03000094
:020000040000fa
:04015c000c03000090
:020000040000fa
:040160000c0300008c
:020000040000fa
:040164000c03000088
:020000040000fa
:040168000c03000084
:020000040000fa
:040208000c030000e3
:020000040000fa
:04020c000c030000df
:020000040000fa
:040210000c030000db
:020000040000fa
:040214000c030000d7
:020000040000fa
:040218000c030000d3
:020000040000fa
:04021c000c030000cf
:020000040000fa
:040220000c030000cb
:020000040000fa
:040224000c030000c7
:020000040000fa
:040228000c030000c3
:020000040000fa
:04022c000c030000bf
:020000040000fa
:040230000c030000bb
:020000040000fa
:040234000c030000b7
:020000040000fa
:040238000c030000b3
:020000040000fa
:04023c000c030000af
:020000040000fa
:040240000c030000ab
:020000040000fa
:040244000c030000a7
:020000040000fa
:040248000c030000a3
:020000040000fa
:04024c000c0300009f
:020000040000fa
:040250000c0300009b
:020000040000fa
:040254000c03000097
:020000040000fa
:040258000c03000093
:020000040000fa
:04025c000c0300008f
:020000040000fa
:040260000c0300008b
:020000040000fa
:040264000c03000087
:020000040000fa
:040268000c03000083
:020000040000fa
:04026c000c0300007f
:020000040000fa
:040270000c0300007b
:020000040000fa
:040274000c03000077
:020000040000fa
:040278000c03000073
:020000040000fa
:04027c000c0300006f
:020000040000fa
:040280000c0300006b
:020000040000fa
:040284000c03000067
:020000040000fa
:040288000c03000063
:020000040000fa
:04028c000c0300005f
:020000040000fa
:040290000c0300005b
:020000040000fa
:040294000c03000057
:020000040000fa
:040298000c03000053
:020000040000fa
:04029c000c0300004f
:020000040000fa
:0402a0000c0300004b
:020000040000fa
:0402a4000c03000047
:020000040000fa
:0402a8000c03000043
:020000040000fa
:0402ac000c0300003f
:020000040000fa
:0402b0000c0300003b
:020000040000fa
:0402b4000c03000037
:020000040000fa
:0402b8000c03000033
:020000040000fa
:0402bc000c0300002f
:020000040000fa
:0402c0000c0300002b
:020000040000fa
:0402c4000c03000027
:020000040000fa
:0402c8000c03000023
:020000040000fa
:0402cc000c0300001f
:020000040000fa
:0402d0000c0300001b
:020000040000fa
:0402d4000c03000017
:020000040000fa
:0402d8000c03000013
:020000040000fa
:0402dc000c0300000f
:020000040000fa
:0402e0000c0300000b
:020000040000fa
:0402e4000c03000007
:020000040000fa
:0402e8000c03000003
:020000040000fa
:0402ec000c030000ff
:020000040000fa
:0402f0000c030000fb
:020000040000fa
:0402f4000c030000f7
:020000040000fa
:0402f8000c030000f3
:020000040000fa
:0402fc000c030000ef
:020000040000fa
:040300000c030000ea
:020000040000fa
:040304000c030000e6
:020000040000fa
:040308000c030000e2
:020000040000fa
:04030c000c030000de
:020000040000fa
:040310000c030000da
:020000040000fa
:040314000c030000d6
:020000040000fa
:040318000c030000d2
:020000040000fa
:04031c000c030000ce
:020000040000fa
:040320000c030000ca
:020000040000fa
:040324000c030000c6
:020000040000fa
:040328000c030000c2
:020000040000fa
:04032c000c030000be
:020000040000fa
:040330000c030000ba
:020000040000fa
:040334000c030000b6
:020000040000fa
:040338000c030000b2
:020000040000fa
:04033c000c030000ae
:020000040000fa
:040340000c030000aa
:020000040000fa
:040344000c030000a6
:020000040000fa
:040348000c030000a2
:020000040000fa
:04034c000c0300009e
:020000040000fa
:040350000c0300009a
:020000040000fa
:040354000c03000096
:020000040000fa
:040358000c03000092
:020000040000fa
:04035c000c0300008e
:020000040000fa
:040360000c0300008a
:020000040000fa
:040364000c03000086
:020000040000fa
:040368000c03000082
:020000040000fa
:100400006f8320000e9f20000e0188000000000076
:10041000000020000000e000020032000001200087
:1004200020028800140007007d0007000000e000a3
:1004300003003a0000ba200001002000020037004b
:100440000000200001002000810f70000100320038
:1004500014000700000020000000e000020032004d
:100460000000020000000000360a02000000000048
:100470000040da000000fe004440a900a001200076
:100480000000e0000300320000002000a00188000e
:100490004440a800000006008a1f78008b1f7800e7
:1004a0000000060091018800800478000000eb0045
:1004b0001a003700e284440032a0b4009905ba0063
:1004c000e284440032a0b4009906ba00e2844400f9
:1004d00032a0b4000006eb00476fde00fd07b2005b
:1004e000636ce10003003a00ebff07000000eb0043
:1004f0000a003700606ce10004003a00005deb0088
:100500008b05e900fdff3e00040037006168e10053
:10051000010032000086eb000b00070019c7ba008b
:100520001905ba000e04e00003003a000a00e000da
:10053000e0ff3a0000000600fe07b2009e018800be
:100540008a047800f5ff3700395dba008b05e900b1
:100550000c003200295dba008b05e900080032006a
:100560000c00e00003003a00e284440032a0b40032
:10057000f5ff370019ddba008b05e900faff3a00f4
:100580008904e800e184440032a0b40000000600c1
:10059000000000000000000000000000000000005b
:1005a000000000000000000000000000000000004b
:1005b000000000000000000000000000000000003b
:1005c000000000000000000000000000000000002b
:1005d000000000000000000000000000000000001b
:1005e000000000000000000000000000000000000b
:1005f00000000000000000000000000000000000fb
:1006000000000000000000000000000000000000ea
:1006100000000000000000000040da000000fe00c2
:1006200000000500889fbe008a9fbe003004420083
:10063000b0844a0030054b0090854b006000b1004b
:100640000898be000a90be000440e10005c8e10021
:1006500006d0e10007d8e100020031006800400048
:100660001008e8004f05be004f04be000000060061
:10067000889fbe008a9fbe003004be002005be00d9
:100680000418540005985c0006185d0007985d008a
:10069000110020000440e10005c8e10006d0e1009f
:1006a00007d8e100010039008000eb00108810003d
:1006b0004f05be004f04be00000006001200fa0005
:1006c000889fbe008a9fbe008c9fbe00e0b79f003f
:1006d000f1b79f0082bf9f0093bf9f000605be0039
:1006e0000404be000000eb00d0b79f00c0b79f001d
:1006f000b0b79f00a0b79f0090b79f000006eb0027
:100700005fb19700cfb09700820141003fb09700e2
:100710000200e00004003d00370007007e80570023
:10072000c0ff070003003700330007007e8057003a
:10073000cfff0700dfb697000d00e0000c0035008a
:100740006fb29700ffb297000fbb97009fbb970057
:1007500010002000010020006011b80000027200ab
:100760008182720002037300838373001b00070001
:100770000c06e80001042000810f5600e0ff3a005b
:100780000d00e00004003d000802be000a03be00a8
:100790007e805700a3ff07005fa897000000e000dd
:1007a00005003a001fb29700afb297003fb3970021
:1007b000cfb39700090007006fb09700ffb0970014
:1007c0000fb997009fb997004f06be004f05be00b6
:1007d0004f04be000080fa00000006000100070080
:1007e00000000600a4b79f00b5b79f00c6b79f00e2
:1007f000d7b79f00000006004f09de00828171001c
:10080000b3b79f004f01de008180400082807000fe
:10081000a1b79f008fb097004f09de000000400095
:100820000200700090b79f007fa897004f01de0084
:10083000818040008280700081b79f000d0007001a
:100840004f3ade000000400004007000f0af9f004f
:10085000080007000402420085824a0006034b009c
:1008600087834b00dfff07000802be000a03be00bb
:10087000000006002fb29700bfb297004fb3970059
:10088000dfb3970000000600881f780018002000e2
:10089000881f780089ff07008f87e9004f047800e0
:1008a00000000600801feb0084ff07008f87e9002f
:1008b00000000600889fbe008a9fbe00e00f500027
:1008c000e08f5800e00f5900e08f59000c003d0008
:1008d0006044b8006055b8000000540081805c009e
:1008e00002015d0083815d001800200015000700f3
:1008f00008003d00180007000004eb000500370069
:100900000004eb000f00070002003d00120007008a
:1009100018002000dcff07000800e000060032009d
:100920006022b8006033b8000000520081805a0095
:1009300002015b0083815b004f05be004f04be00d7
:1009400000000600e00f5200e08f5a00e00f5b004d
:10095000e08f5b00000006006044b8006055b800fe
:100960000402540085825c0006035d0087835d00fd
:1009700000000600889fbe008a9fbe008c1f780082
:10098000e00f5000e08f5800e00f5900e08f590051
:100990000d003d006044b8006055b80000005400f0
:1009a00081805c0002015d0083815d001c002000ed
:1009b0000820e10009a8e1000ab0e1000bb8e1005d
:1009c0000d003d00080037000006eb00e00f52006c
:1009d000e08f5a00e00f5b00e08f5b0006003d00f7
:1009e0006044b8006055b8000402540085825c0081
:1009f00006035d0087835d00aaff07000c00e0008e
:100a0000060032006022b8006033b80000005200d7
:100a100081805a0002015b0083815b004f067800f1
:100a20004f05be004f04be0000000600889fbe00b8
:100a30008a9fbe008c1f78000006eb00e00f50007c
:100a4000e08f5800e00f5900e08f590007003d008b
:100a50006044b8006055b8000000540081805c001c
:100a600002015d0083815d001c002000e00f520048
:100a7000e08f5a00e00f5b00e08f5b0007003d0055
:100a80006044b8006055b8000402540085825c00e0
:100a900006035d0087835d000c00a2000c000700c8
:100aa0000c00e000060032006022b8006033b8009d
:100ab0000000520081805a0002015b0083815b00cc
:100ac0004f0678004f05be004f04be000000060030
:100ad000889fbe008a9fbe008c9fbe000404b800a1
:100ae0000506b8008904460060854e000606b80079
:100af0000a054600e0854e000706b8008b05460053
:100b0000040eb800890446000a854e00e0854d00b9
:100b1000050eb8000a0546008b854e00060eb8008b
:100b20008b0546000416b8000a0546008b854e006a
:100b30000516b8008b054600041eb8008b0546005c
:100b40000800be000a01be004f06be004f05be00f1
:080b50004f04be000000060086
:020000040000fa
:100b580030310000323300003435000036370000f1
:100b68003839000041420000434400004546000077
:100b7800303000002030000030200000303000000d
:040b88000000000069
:020000040000fa
:100b8c006f41610042489800e1c0600051489800f4
:100b9c0002003a00614898000200370001c4b3001b
:100bac0061489800e048900002c1700062489800cb
:100bbc0000000600889fbe008a9fbe0000047800db
:100bcc0081447800eacf540008003200edcf540085
:100bdc000d003a00d84890000041eb000800780066
:100bec00e7ff07000045eb001c003700d8489000d9
:100bfc008140e8000041eb0008007800e0ff0700ae
:100c0c000045eb0015003700684990000274a00005
:100c1c00b80190008000eb00080078000300010090
:100c2c0000457800e14f45000c003200b8019000ff
:100c3c000941780001082000080078000300010039
:100c4c0000457800484990000241e800d8489000df
:100c5c009809900008007800030001000a40780011
:100c6c004f05be004f04be0000000600889fbe006a
:100c7c0000047800814478000980fb004400de0009
:100c8c00c15a2800e140780038099000080078002b
:100c9c0002000100e14f400006003200ef846400c6
:100cac00c05a2800e0c07c00380990000800780089
:100cbc00020001004f04be0000000600889fbe0029
:100ccc000004be00c848de00480990000800780007
:100cdc0002000100e14f400004003200480990007e
:100cec008940780008007800020001004f04be0023
:100cfc0000000600889fbe000004be000040eb0010
:100d0c000500370038099000080078000200010047
:100d1c00e14f400003003200b94078000104e000cc
:100d2c00f8ff3a004f04be0000000600889fbe008a
:100d3c000004be000040eb000500370038099000ad
:100d4c000800780002000100e14f4000030032006f
:100d5c00b94078000104e000f8ff3a004f04be00ef
:100d6c0000000600889fbe0000047800b8019000c7
:100d7c0012c0b3008000eb000800780003000100f3
:100d8c0080447800e1cf440007003200500020007e
:100d9c0010010700980990000041eb008240780098
:100dac000800780003000100094078004f04be00e1
:100dbc0000000600889fbe0000047800f0002000b0
:100dcc0004010700b801900082c3b3008000eb005f
:100ddc000800780003000100e14f400020003200c1
:100dec0050002000fb000700b8019000c2c0b30007
:100dfc008000eb000800780003000100e14f400088
:100e0c001700320050002000f2000700b8019000db
:100e1c0012c0b3008000eb00080078000300010052
:100e2c00e14f40000e00320050002000e9000700a6
:100e3c00b801900022c0b3008000eb0008007800dd
:100e4c0003000100e14f400005003200500020007b
:100e5c00e0000700a80890000800780001000100dd
:100e6c004f04be00000006008042eb00454898008d
:100e7c0055489800056e200005089800655c200018
:100e8c0015089800856b200025089800055e200049
:100e9c0035089800c5632000450898004566200079
:100eac00550898000568200065089800c569200061
:100ebc0075089800b800070000000600889fbe0067
:100ecc008a9fbe008c1f780081057800024578004f
:100edc00034678000004e00005003d008044eb0070
:100eec000044eb000a04e0000e003a001500370045
:100efc000c08a300040032008040eb00c600070081
:100f0c0080447800030037008040eb00b3000700fa
:100f1c00804478000904e000f1ff3200cd000700a6
:100f2c000b0037001b407800ce000700804478008f
:100f3c000904e00003003a000844e800884f55001b
:100f4c00f8ff3e000c18a30001003a00c100070096
:100f5c00094078004f0678004f05be004f04be00d4
:100f6c00000006000200fa00889fbe008a9fbe00a7
:100f7c000004be008205780003457800f9f79f0055
:100f8c00184078000004e0000b00320098409000fc
:100f9c00e3806000120020008110dd00e1f79f006b
:100fac008041eb00ea805700c4ff0700e0f79f0088
:100fbc000004e00013003a00e18f44000a00320004
:100fcc002840900023c0b30012c0b300e980570042
:100fdc00baff07000004e0000a003a0000c0eb0072
:100fec00e0f79f000200370028449000e8f79f00cc
:100ffc008041eb000a4178008b0078006ff097007d
:10100c00aeff07004f05be004f04be000080fa0083
:10101c00000006000200fa00e2ff9f0013c0b300bc
:10102c000f81e900cfff07000080fa0000000600e6
:10103c00889fbe008a9fbe008c9fbe000106780070
:10104c00024578000004e0000d0035000308a30001
:10105c000400320011c0b3006f0007008046780016
:10106c000300370011c0b3005c0007008046780015
:10107c000d04e00003003200760007001400370076
:10108c008046eb00e14f55000d0036008c047800d3
:10109c0018c0b300884578000b4078007a00070030
:1010ac00805c78000844e800884f5500faff3e0049
:1010bc000ac5e9000a85fb000a05e8000a06460095
:1010cc000040eb0070000700004e78006100070044
:1010dc000d4078004f06be004f05be004f04be0009
:1010ec00000006000200fa00889fbe008a9fbe0026
:1010fc000004be008205780003457800e9f79f00e4
:10110c00184078000004e0000b0032009841900079
:10111c00e3816100120020008311dd00ea8057009a
:10112c00836878008041eb0064ff0700f0f79f00b4
:10113c000004e00011003a00e18f44000a00320084
:10114c002840900023c0b30012c0b300ea805700bf
:10115c005aff0700f0f79f0013c0b3000004e00033
:10116c0002003200050037008041eb00284090005f
:10117c000a4178008b007800adff07004f05be00d8
:10118c004f04be000080fa000000060013c0b3003c
:10119c00d4ff0700000006000148780012409800b8
:1011ac002340980034409800817b20002100980057
:1011bc0001812000310098008187200041009800b7
:1011cc00c18c200051009800000006009000070020
:1011dc000000060096000700000006000402a800ac
:1011ec000402ab00feff3a008180fb000080fb0094
:1011fc000000400001007000001088000842ab00a5
:10120c00feff3a00000420000402b6000000ea00d1
:10121c004f00de00000006000422a8000422ab00f0
:10122c00feff3a008180fb000080fb0000004000c4
:10123c0001007000001088000842ab00feff3a006d
:10124c00000420000402b6000000ea004f00de009b
:10125c00000006000442a8000442ab00feff3a0066
:10126c00000006000080fb00001088000842ab0064
:10127c00feff3a00000420000402b6000000ea0061
:10128c004f00de0000000600804078000462a800d9
:10129c000462ab00feff3a00001080000104e00085
:1012ac0003003a0004a2a8000482a8000100370041
:1012bc000482a8000482ab00feff3a000000060086
:1012cc00889fbe008a9fbe008c1f78008105780025
:1012dc0002457800034678000004e00005003d005c
:1012ec008044eb000044eb000a04e0000e003a00de
:1012fc00150037000c08a300040032008040eb00fe
:10130c00c5ff070080447800030037008040eb00e5
:10131c00b2ff0700804478000904e000f1ff3200be
:10132c00ccff07000b0037001b407800cdff0700f7
:10133c00804478000904e00003003a000844e80007
:10134c00884f5500f8ff3e000c18a30001003a002e
:10135c00c0ff0700094078004f0678004f05be001b
:10136c004f04be0000000600889fbe008a9fbe008e
:10137c008c1f780001067800024578000004e0001c
:10138c0003003d00e14f55000c003e0018003700f3
:10139c000308a3000300320011c0b3009eff070036
:1013ac000200370011c0b3008cff07000004e000fe
:1013bc00f4ff3200a7ff0700110037008c047800ff
:1013cc0018c0b300884578000b407800aeff0700ca
:1013dc00805c78000844e800884f5500faff3e0016
:1013ec000ac5e9000a85fb000a05e8000a06460062
:1013fc000040eb00a4ff0700004e780095ff0700ab
:10140c004f0678004f05be004f04be0000000600da
:10141c0080022000101088000422ef000622ef004a
:10142c000000e900501088000822ef0000000600c0
:10143c008000eb006011b80004482800e501200092
:10144c006033b80076fd0700843e200005002000c4
:10145c006033b80009fd0700a80007000000060073
:10146c00889fbe008a9fbe008c9fbe008e1f780096
:10147c0056ff07000042eb0003c5b300044178009f
:10148c0041c7b3000080200077fe07000042eb004c
:10149c0023c6b30022c0b30041c7b30000822000b2
:1014ac008a000700008020008140800001000100bc
:1014bc00a2cab3008040eb00008220006341800090
:1014cc00030001000041eb00824078000080200006
:1014dc009340800003000100c15b280000802000c5
:1014ec00f2408000020001008004eb006055b8005f
:1014fc000044eb000b88a300020032000bc6ea008c
:10150c00010037000b4678000a88a3000200320065
:10151c008ac6ea00010037008a4678000988a300d1
:10152c000200320009c7ea000100370009477800c1
:10153c0008417800884078000080200093408000ab
:10154c00030001008c40780000802000c240800025
:10155c000200010032c0b3008840780000802000f7
:10156c0093408000030001008d4078000080200033
:10157c00c24080000200010062c0b30088407800c5
:10158c000080200093408000030001008e40780012
:10159c0000802000c2408000020001000c41780055
:1015ac0088407800008220009341800003000100f5
:1015bc000d41780011c0b3000082200093418000df
:1015cc00030001000e41780021c0b300008220000e
:1015dc0093418000030001008b05e8000a85e800b8
:1015ec00e4844400c3ff3700b0019000014178004f
:1015fc00110020000300010000000600b001900063
:10160c000141780081002000030001000000060069
:10161c00889fbe008a1f78000004780081447800ff
:10162c0002457800b80190000041eb008000eb000f
:10163c000800780003000100e14f40000800320070
:10164c008940780008007800e7ff0700e14f400070
:10165c00030032008a40780008007800e7ff07009a
:10166c004f0578004f04be0000000600e3806000c8
:10167c008180e800b001900003000100000006002a
:10168c00889fbe008a1f780000047800824478008e
:10169c00b80190000141780061002000080078003a
:1016ac0003000100e14f400005003200b80190003a
:1016bc000941780071002000080078000300010047
:1016cc004f0578004f04be0000000600e5b0200076
:1016dc0065009800a5af20007500980045b020006b
:1016ec0005089800c5b320001508980065b42000c3
:0c16fc0025089800a8fe0700000006006a
:020000040000fa
:10170800f03fb1000180b10006003500ee0309008a
:1017180000000000403fb1000180b100fbff3d0028
:101728001000b000203fb000020035000080090022
:081738000000000000000600a3
:020000040000fa
:10174000000800003600000000000000000000005b
:00000001FF
