:020000040800F2
:100000000000052011360008453600084536000876
:100010004536000845360008453600080000000057
:100020000000000000000000000000007D16000835
:1000300045360008000000001317000823170008C9
:1000400045360008453600084536000845360008A4
:100050004536000845360008453600084536000894
:100060004536000845360008453600084536000884
:100070004536000845360008453600084536000874
:100080004536000845360008453600085D4700083B
:10009000614700084536000851470008453600080A
:1000A0004536000845360008453600084536000844
:1000B0004536000845360008453600084536000834
:1000C0004536000845360008453600084536000824
:1000D0004536000845360008453600084536000814
:1000E0004536000845360008453600084536000804
:1000F00045360008453600084536000845360008F4
:1001000045360008453600084536000845360008E3
:1001100045360008453600084536000845360008D3
:1001200045360008453600084536000845360008C3
:1001300045360008850F000845360008714700085D
:100140007547000845360008654700084536000831
:100150004536000845360008453600084536000893
:100160004536000845360008453600084536000883
:1001700045360008453600084536000800000000F6
:100180004536000845360008453600084536000863
:100190004536000845360008453600084536000853
:1001A0004536000845360008453600084536000843
:1001B0004536000845360008453600084536000833
:1001C000453600084536000810B5054C237833B98C
:1001D000044B13B10448AFF300800123237010BD1A
:1001E000480C0020000000000CA500080C4B43B197
:1001F0000C480D4910B5AFF300800C48036823B9D3
:1002000010BD0A48036833B97047094B002BF7D07B
:10021000BDE810401847064B002BF5D0184700BF2B
:10022000000000000CA500084C0C0020440C00202D
:1002300000000000154B002B08BF134B9D46A3F593
:10024000803A00218B460F461348144A121A05F0D3
:1002500075FD0F4B002B00D098470E4B002B00D0A4
:1002600098470020002104000D000D48002802D00E
:100270000C4801F00CF905F01DF92000290001F0EF
:10028000BDF901F001F900BF0000080000000520E1
:10029000000000000D160008480C0020745B0020D0
:1002A0008F1400080000000010B5044600F0A0FF05
:1002B0000121204604F04CFBBDE8104000F0C4BF13
:1002C00010B5044600F094FF0021204604F040FBE6
:1002D000BDE8104000F0B8BFF8B51C2604460D4636
:1002E00017460021324605F029FD2946A51920466A
:1002F00000F06BFE32460021284605F01FFD39460E
:10030000284600F062FE00F073FF2046002104F052
:100310001BFB00F099FF00F06BFF0021284604F062
:1003200013FB00F091FF2046FFF7CAFF2846FFF7B6
:10033000C7FF02232046A363002384F83C30F8BDA6
:10034000024B93FBF1F18163704700BF90D0030033
:10035000F8B50725002604461C300F46FFF7A4FF1A
:10036000E3692046A26A1B041360FFF7A9FFA06B94
:1003700001F097F86368A06B1A6823681A4214BFEB
:1003800001230023AB401E4301F08BF8636AE2694E
:10039000A06B1A60400001F084F815F1FF35DFD240
:1003A000E3692046A26A1B04136097B1FFF77CFF44
:1003B0002368E2681B041360A06B400001F071F831
:1003C000636AE269A06B1A60400001F06AF8304687
:1003D000F8BDFFF775FFEFE770B5072504461C3041
:1003E0000E46FFF761FFE369A26A1B04A06B13606E
:1003F00001F057F846FA05F32046DB072FD5FFF743
:100400005FFFA06B01F04DF8636AE269A06B1A60B0
:10041000400001F046F815F1FF35E4D2E369A26A25
:100420001B04A06B136001F03CF82046FFF748FF67
:10043000A06B01F036F8636AE269A06B1A6001F004
:1004400030F86368A06B1A6823681A4214BF6FF013
:1004500001054FF0FF3501F024F8284670BDFFF785
:1004600023FF2368E2681B041360CAE790F83C305E
:1004700010B50446A3B1FFF723FF04F11C00FFF7FA
:1004800013FFE369A26A1B04A06B1360400001F034
:1004900008F8636AE269A06B1A60400001F001F895
:1004A0002046FFF701FF2368E2681B04A06B13607E
:1004B00000F0F7FF012384F83C3010BD38B500F19F
:1004C0001C0504462846FFF7EFFEE369A26A2046B2
:1004D0001B041360FFF7E8FE2368E2681B04A06BAF
:1004E0001360400000F0DDFF2846FFF7E9FEA06B37
:1004F00000F0D7FF2046FFF7E3FEA06B00F0D1FF2E
:10050000002384F83C3038BD02F00F0201F00101F5
:100510000275417521B98175837D1A4382757047D3
:1005200040238375F8E738B505460C46002014F8DB
:10053000011B21B16B6A28469847FF28F7D138BDC7
:10054000FFF7F1BF10B504460F2000F0AFFA3822D4
:10055000A368002120469847FF2825D0052000F0F9
:10056000A5FAA3680C22002120469847FF281BD03B
:10057000052000F09BFAA36801220021204698473D
:10058000FF2811D0052000F091FAA3680222002173
:1005900020469847FF2807D0052000F087FA236AF5
:1005A0002046BDE810401847FF2010BD0A2970B54D
:1005B00004460E4608D00D290BD10022417D0025AE
:1005C000FFF7A2FF284670BD417D00220131C9B26C
:1005D000F5E7827D0021836842F080029847FF287A
:1005E0000546EFD0A3683246802120469847227DF9
:1005F0000546E3690132617D2046D2B29847E1E7C2
:1006000070B50A09084E0C46436AB15C0546984726
:10061000FF2807D004F00F046B6A2846315DBDE85F
:100620007040184770BD00BF789B000870B5836AA2
:100630000D46090A04469847FF2805D0A36AE9B287
:100640002046BDE87040184770BD38B50122836868
:10065000002104469847FF28054607D0052000F0F2
:1006600025FA0022E369204611469847284638BDFE
:1006700070B400259DF80C6005754575094D03960D
:100680008561094DC561094D0562094D4562094DF8
:100690008562094DC562094D0563094D456370BC0E
:1006A00000F0EAB945050008090500084B060008F6
:1006B000AD050008010600082D06000841050008E8
:1006C0002705000808222D21836818470246036980
:1006D00000211432184737B5022301AAC568322118
:1006E0000446A8479DF8053034219DF80420204693
:1006F0001B02E56803F44073134301AAE38202235B
:10070000A8479DF805309DF8042036211B02E568B6
:10071000204603F44073134301AA23830223A8470E
:100720009DF805309DF804201B0203F44073134329
:10073000638303B030BD000070B400259DF80C60E9
:10074000C58205834583054D0396C561044D056249
:10075000044D456270BC00F08FB900BFC5060008AB
:10076000CD060008D706000810B5036900F1140291
:100770000F210446984748B9237DBD2B06D1A368B5
:10078000204690222021BDE81040184710BD70B5CA
:10079000064600F11605282433692A4621463046CC
:1007A000984720B901340135A4B22B2CF4D170BD87
:1007B000C27D1302120903F47061837D0B4364212F
:1007C00013FB01F3017E1B1342EA011209090376B0
:1007D000C2758175704710B5036900F119022B21AC
:1007E0000446984738B9236904F11A0220462C219F
:1007F000BDE81040184710BD827E437E43EA0223C5
:1008000043F24F0283F4004191424FF4F07195BFDF
:10081000C3F5304303F59F438022002295BF503338
:1008200030339BB29BB2B3FBF1F10A4492B24276F1
:10083000A2EB021203EB421318229BB203EB8303D9
:1008400093FBF2F383767047024603692721153242
:100850001847000070B4094E9DF80C50C661084E50
:1008600003950662074E4662074E8662074EC662D1
:10087000074E066370BC00F0FFB800BF69070008B0
:100880008F070008B1070008D7070008F90700081C
:10089000490800080148FFF7E9BD00BF640C0020CB
:1008A0000148FFF70BBE00BF640C0020014603485F
:1008B00008B5FFF791FD002008BD00BF640C0020C3
:1008C00008B5431E034859425941FFF741FDC0B2E4
:1008D00008BD00BF640C002000F0FBBD4CF250319D
:1008E0000148FFF72DBD00BF640C0020182219211C
:1008F0000148FFF7F1BC00BF640C00202DE9F04176
:100900001746020688461D4604D50026BE4210D171
:10091000002416E013F0010108D0002100F0D4F803
:1009200004460028F1D000F0DDF80CE000F0C0F83B
:10093000F6E798F80000013600F0D6F804460028E3
:10094000E4D0AB07EFD52046BDE8F081F7B504460B
:1009500000780D4616461F468DF8071038B94FF639
:10096000FF73A0789D4214D18DF806001CE06378D7
:10097000012202A903F0030302FA03F301F8023D86
:100980000023FFF7BBFF8DF806000028E7D003B077
:10099000F0BD022301220DF10701FFF7AFFF002890
:1009A000F5D1FF238DF8063000233A4631469DF8F5
:1009B0000600FFF7A3FFEAE713B502AC012304F832
:1009C000012D2246FFF7C2FF02B010BDF0B505466B
:1009D00085B000780F4614461E468DF80E10A8B953
:1009E0004FF6FF739F4223D10023A87802062CD52F
:1009F000C4F101056319DBB29E4234D8002000F037
:100A00007AF8207000F06EF800200FE06B78012279
:100A100004A903F0030302FA03F301F8013D0023E4
:100A2000FFF76CFF8DF80F000028D9D005B0F0BD9E
:100A3000022301220DF10E01A878FFF75FFF8DF868
:100A40000F000028F2D10123CFE7012143B100F0CC
:100A50003BF80028CCD0019000F044F80198E5E77D
:100A600000F026F8F5E7012000F045F804F8010B46
:100A7000C0E70123FFF7AABF83709DF80030017023
:100A8000C370054B42704360044B8360044BC360EA
:100A9000044B0361704700BF4D090008B909000805
:100AA000CD090008730A000800F029B800F025B845
:100AB00038B50C460546FFF7EDFE44EA4500C0B2E6
:100AC000FFF7F4FEC0B238BD38B50C460546FFF757
:100AD000E7FEFFF7DFFE44EA4500C0B2FFF7E6FE9F
:100AE000C0B238BDFFF7DCBE08B5FFF7DFFE00304F
:100AF00018BF012008BDFFF7E3BEFFF7EDBEFFF70B
:100B0000EDBE0A468368012118470A46836808211A
:100B1000184701F0030183680231184770B58368F4
:100B200015460A46062104469847FF2806D0A368C2
:100B30002A4620460721BDE87040184770BD70B5B1
:100B4000154600220E468368114604469847FF2842
:100B50000BD031462046FFF7D4FFFF2805D02946A9
:100B60002046BDE87040FFF7D0BFFF2070BD0000F9
:100B700070B4084E9DF80C504661074E039586618F
:100B8000064EC661064E0662064E466270BCFFF710
:100B900073BF00BF3F0B0008030B00080B0B0008DE
:100BA000130B00081D0B00080A22B1FBF2F310B56D
:100BB00003F1300402FB131330330470437000233D
:100BC000837010BDF8B564260F460546B1FBF6F4F8
:100BD000E1B2FFF7E9FF06FB14710230C9B2FFF77B
:100BE000E3FF00232B71F8BD2DE9F047354C364F5C
:100BF000636A20469847E38ADFF8DCA0002113F4FB
:100C0000007F3B80314E16BFC3F580632B232D221E
:100C1000DFF8C89014BF3B808AF80030238B18BFE0
:100C20008AF8002013F4007F3380294D16BFC3F5E6
:100C300080632B232D22DFF8A88014BF338089F82E
:100C40000030638B18BF89F8002013F4007F214C1B
:100C50002B801ABF2D22C3F580632B23204618BF9B
:100C600088F800204FF0020214BF2B8088F8003073
:100C7000E3699847636A9AF8001020469847E36A48
:100C80003988204698470A22E36920460021984780
:100C9000636A99F8001020469847E36A3188204635
:100CA0009847E3692046022201219847636A98F831
:100CB000001020469847E36A29882046BDE8F0479F
:100CC000184700BFA80C0020AC0D0020AE0D00207E
:100CD000B00D0020D00C0020A40C0020A50C00209A
:100CE000A60C002070B5294D294C2B6A2846984740
:100CF0006B6A2846274E98470022E3692046114632
:100D00009847EB7DA97D304643EA0121FFF75AFF62
:100D1000236B314620469847636A2E212046984728
:100D2000297E3046FFF740FF236B31462046984727
:100D30001949636B20469847AB6A28469847EB6A87
:100D4000284698470022E369204601219847697E9A
:100D50003046FFF729FF236B314620469847636AE8
:100D60002E2120469847A97E3046FFF71DFF236BB2
:100D7000314620469847636ADF2120469847636AD8
:100D800020464321BDE87040184700BF680D002091
:100D9000080D00209C0D0020889B000870B50A4CAF
:100DA0000E4615460021236A024620469847236ACC
:100DB0003246012120469847236A2A4620460221CE
:100DC000BDE87040184700BF400D00202DE9F743F3
:100DD0003F4C0025DFF82091FFF766FEDFF81C810D
:100DE0002A462046009550237421FFF741FC394FD5
:100DF00000955023032274214846374EFFF738FCF4
:100E000000951D23012274214046FFF795FC0095B3
:100E10005C23012274213846FFF71CFD0222742155
:100E2000304600956223FFF7A3FEA369204698474A
:100E3000D9F8183048469847D8F81C3040469847AB
:100E4000FB693846984773692946AA223046234EE3
:100E500098472A46E369294620469847636B20490C
:100E600020469847E3690822294620469847636B45
:100E70001C49204698472A46E369204601211A4D1D
:100E80009847636B194920469847E3692046082232
:100E900001219847636B2046154C16499847FFF788
:100EA000A3FEFFF71FFF30882988FF282288A8BFEC
:100EB000FF20FF29A8BFFF21FF2AC0B2A8BFFF2241
:100EC000C9B2D2B2FFF76AFF6420FFF7EFFDE6E791
:100ED000D00C0020680D0020400D0020AC0D00203B
:100EE0008C9B00088F9B0008AE0D0020929B000891
:100EF000B00D0020959B0008080D0020A80C0020D4
:100F0000C36810B504460BB19B689847204610BDD6
:100F100038B5044648B15830A04206D0A0F12C059F
:100F20001438FFF7EDFF2846F6E7204638BD0000ED
:100F300070B50E4C0025282620462946324640F83A
:100F4000045B04F0FBFE3246294604F13000E56202
:100F500004F0F4FEA5652046E565054A84F8605076
:100F60000449BDE8704000F08DBA00BFB40D002008
:100F7000C8010020110F0008014800F009B800BFA7
:100F8000180E0020014802F093BB00BF74450020FA
:100F900008B5006801F036FC18B1BDE8084000F063
:100FA000DFB808BD70B50E460446154603F0ACFC2C
:100FB000013609D02046002103F0CAFC294620460C
:100FC000BDE8704003F0C0BC70BD0022FFF7EABF6F
:100FD00010B5044601300DD110BD9C4209D1204608
:100FE000896803F0A3FD20460021BDE8104003F00E
:100FF00037BE0C31B1F900305A1CEED10248BDE8C1
:10100000104000F03FB900BFCE9B0008884208B5F1
:1010100008D0431C06D0013106D0044800F032F954
:101020004FF0FF31084608BD0146FBE79D9B0008D5
:10103000B1F900305A1C01D118467047834201D1E2
:10104000486870470C31F3E7421C10B5044607D0DE
:10105000FFF7EEFF431C044602D1024800F012F9EC
:10106000204610BDAE9B0008D0B544680368D4E9A3
:1010700002675B6898470022B0423B4642EA0002A2
:1010800002D2003247F10103C4E90223D0BD2DE9A9
:1010900070430646FFF7E8FF73685A68DAB1D3E990
:1010A0000245D2E90001A94208BFA04211D3B0EB2A
:1010B000040861EB0509B9F1000F08BFB8F1E04F72
:1010C00009D2001B9A68336810441B69BDE870435D
:1010D00018470020F6E74FF0E040F3E7036870B5EB
:1010E000DB680446984763685B68A3B12046FFF756
:1010F000BBFF65686E68D5E90201D6E90023994215
:1011000008BF904207D3F3686B602B68002BEAD0CE
:10111000B0689847E7E72046BDE87040FFF7B7BFE3
:101120000148FFF7DBBF00BFE09B000804F0F2B905
:1011300004F052BE04F0AEB803F082BE70B50446AF
:101140000D46164600F054F82A4621463346034819
:1011500000F03AF8BDE8704000F002B8FC9B0008CF
:1011600008B500F045F8962000F0B3F9962000F09D
:10117000B0F9F8E770B50D46A0B0044600F038F8B5
:101180002B4680212246684606F02AFB051E03DC1A
:1011900000F05AF820B070BD094B1B6823B9392202
:1011A0003821084803F002F90024064E1DF8041007
:1011B0000134304603F034FAA542F7D1E8E700BF26
:1011C000C8140020485700200FB407B504A951F8EF
:1011D000040B0191FFF7CEFF03B05DF804EB04B000
:1011E0007047EFF31080C04300F00100704700002B
:1011F00038B5FFF7F6FF054672B60E4C236823B9E3
:1012000080F001030C4ADBB213702368013304D170
:1012100045220A490A48FFF791FF23682BB125B1FF
:10122000492206490748FFF789FF236801332360F5
:1012300038BD00BF5C0E0020580E00202D9C000819
:10124000519C0008779C000810B50A4C236883B1B4
:10125000FFF7C7FF20B15A2207490848FFF76EFF82
:101260002368013B236023681BB9054B1B7803B936
:1012700062B610BD5C0E00202D9C0008779C000813
:10128000580E00200FB4094B13B51A784AB901243F
:1012900005A904981C700191FFF76CFF204600F02F
:1012A000F3F802B0BDE8104004B07047600E0020B3
:1012B00008B5084B1B685BB938210748392203F091
:1012C00075F84FF416510448BDE8084003F092B990
:1012D00008BD00BFC814002048570020022810B5E0
:1012E00001DC002010BDC31E0B4A002152F8230070
:1012F00042F8231030B903F0D3FD092303604FF007
:10130000FF3010BD03685B699847041EE9DA644248
:1013100003F0C6FD0460F2E7640E00200228F8B571
:101320000D4614460EDC134B1B680BB9FFF7C0FFCC
:101330002F19114EBD4210D015F8011B304603F095
:101340006FF9F7E703380D4B53F8200038B903F075
:10135000A7FD4FF0FF34092303602046F8BD036862
:10136000DB689847041EF8DA03F09AFD63420360D5
:10137000F3E700BFC814002048570020640E002087
:10138000022810B50C460BDC104B1B680BB9FFF79D
:101390008FFF0F4803F032F920700124204610BD62
:1013A00003380C4B53F8200030B903F079FD0923C2
:1013B0004FF0FF340360F1E703689B689847041E11
:1013C000ECDA03F06DFD63420360E7E7C814002028
:1013D00048570020640E0020022810B506DC03F0F8
:1013E0005FFD1D2303604FF0FF3010BD03380A4B33
:1013F00053F8200018B903F053FD0923F2E70368FE
:101400001B699847041E04DA644203F049FD046036
:10141000E9E7204610BD00BF640E00200C4A1368A7
:1014200010B51844EFF30881884205D30C22094B0C
:101430004FF0FF301A6010BD07490C6824B107490E
:10144000096821448842F1D21060184610BD00BFDF
:10145000CC010020705B0020640F0020680F00208A
:10146000074C054608B52368986803F04BFE2368CF
:10147000D86803F047FE0DB1FFF772FEFEE700BF2C
:101480008C0200200120704708B5FFF7E9FF01201A
:10149000704708B500F0DAF808BD08B500F0DEF8CE
:1014A00008BD70B505464FF47A7403F08DFC06460E
:1014B00095FBF4F4002C02DDFFF793FE28B903F04E
:1014C00083FC801BA842FAD370BD204600F006F8CA
:1014D000F5E74FF47A735843FFF7E3BF00F038B9EC
:1014E00038B515480B25154B1C2445600360144B7B
:1014F000C460836001F0D6F8124B18601248134B99
:10150000C46080E82800124B836001F0CBF8114BD7
:1015100018601148114BC46080E82800104B8360AC
:1015200001F0C0F80F4B186003F0C4FF0021BDE8C4
:101530003840084600F062B8FC560020B39C000812
:10154000C4560020C0560020B0560020C39C00089E
:10155000E05600208846002030570020D09C00082C
:1015600094560020905600200A4A0B48C2F10053BE
:1015700003F5A023B3F5806F194628BF4FF48061AF
:101580005B1A016005499818086005490B60054B16
:101590001A607047745B00206C0F0020700F0020F1
:1015A000640F0020680F00207047000008B50D4A46
:1015B00000210D4B0D4813614FF4805353614823B4
:1015C000D3600B4B9360182393610A4B136001F0B7
:1015D00015FE10B90848FFF755FEBDE8084000F0B9
:1015E00095BA00BF0C57002090460020E114000877
:1015F000404600208B9C0008979C000808B5FFF728
:10160000D3FFBDE80840FFF7E1BB000010B5FFF7CE
:10161000ABFF0B4B0B499A680B48043A52F8044F46
:1016200041F8044F8142F9D14FF000529A6002F024
:1016300073FE00F021FABDE81040FFF7B7BF00BF0E
:1016400000ED00E0FCFFFF1FC4010020024B4FF043
:10165000FF31186801F052B888460020014B186825
:1016600001F06AB88846002003F090BB024C08B530
:1016700023689847FCE700BFD0010020EFF3098002
:10168000816911F8021CB9BB01B590E80F10E04761
:10169000BDE800508CE80300264B93E80600914219
:1016A00008BF704741B91EF0100F10D122490868D9
:1016B00020F0010008600AE02CE9F00F1EF0100F86
:1016C00008BF2CED108AC1F838C081F822E001F083
:1016D00069FB184B93E806001A6092F82210906B91
:1016E00061F0FF0E1EF0100F08BFB0EC108AB0E8DA
:1016F000F00F80F30988704710B5104A13689942BB
:1017000006D852F821400FC8A047EFF309842060A3
:1017100010BD10B501F0BEF8BDE81040EFF3098C24
:10172000BAE710B501F052F9BDE81040EFF3098CAB
:10173000B2E70000F401002034EF00E0889D0008CB
:1017400008B5014610B1132001F0C6FC002008BD09
:1017500010B5044600F031F8EFF305832BB9EFF331
:10176000108313B9EFF311833BB16FF00501002033
:1017700000F016F86FF0050010BD2046DFF804C039
:1017800000DF10BD41170008704770477047704771
:101790007047704770477047704770477047704791
:1017A0007047704770477047704770477047704781
:1017B0007047704770477047704770477047704771
:1017C0007047704770477047704770477047704761
:1017D0007047704770477047704770477047704751
:1017E0007047704770477047704770477047704741
:1017F00070477047704770477047704770470000E8
:10180000664870B5017A0446012903D1FFF7C4FF89
:10181000002070BD31B14FF0FF30FFF7BBFF4FF03C
:10182000FF3070BD5E4DA822083004F087FA6B6D62
:10183000472B02D86FF00A00EFE7EA68002AEAD0E7
:101840002B8A002BE7D0EE6AA4F85C30AB683046F8
:10185000296B6266A36400F08FF908B1C4F8886050
:101860006E69A969304600F087F9002800F087808A
:10187000E667EE69296A304600F07EF9002800F03C
:101880008280C4F880606E6AA96A304600F074F9FC
:1018900000287DD0C4F884606E6B46B1F368304692
:1018A000B268316800F0E1F908B1C4F88C60AE6B41
:1018B00046B1F3683046B268316800F0D6F908B135
:1018C000C4F89060EE6B46B1F3683046B268316898
:1018D00000F0CBF908B1C4F894602E6C46B1F368FF
:1018E0003046B268316800F0C0F908B1C4F89860B9
:1018F0006E6C46B1F3683046B268316800F0B5F9F5
:1019000008B1C4F89C60AE6C46B1F3683046B2686A
:10191000316800F0AAF908B1C4F8A060EE6C46B1D5
:10192000F3683046B268316800F09FF908B1C4F836
:10193000A4602D6D45B1EB682846AA68296800F0BF
:1019400094F908B1C4F8A850164AFF2382F822304F
:1019500092F82230D16863F0FF03C1F30221DB4328
:10196000B3FA83F3C3F120038B4298BF4B1CFE21D3
:1019700001FA03F3DBB2D3770123237246E7D4F8ED
:101980008830E36775E7D4F88830C4F880307AE7A8
:10199000D4F88830C4F884307EE700BFD801002036
:1019A000209D000800ED00E010B5034C207AFFF701
:1019B000F4FE207A10BD00BFD801002038B5274CB6
:1019C000237A012B06D06FF00600FFF7E3FE4FF0FD
:1019D000FF3038BD236B224D4BB9AA6D1946214803
:1019E00001F072FA206310B94FF0FF30EDE76B6E33
:1019F0004BB1236D3BB9EA6D19461B4801F064FAFF
:101A000020650028F0D0194801F0BDF80028EBD07F
:101A100001F0EAF92B68DB074CBF0223032383F3B1
:101A20001488134B1B68E36000F0AAFF0028A06134
:101A30000CDB104AFF21131883F800134111012316
:101A400000F01F0003FA00F042F8210000F0B2FF9E
:101A500002232372FFF7A3FE002038BDD801002027
:101A6000209D000839330008ED320008FC010020F9
:101A70008802002000E100E008B5FFF78CFEEFF3DC
:101A800005832BB9EFF3108313B9EFF3118333B14F
:101A90006FF00500FFF77EFE6FF0050008BDDFF870
:101AA00028C0EFF3148313F0020F0AD113F0040FD0
:101AB000EFF308830CBF203B683B23F0070383F35D
:101AC000098800DF08BD00BF0118000808B5EFF362
:101AD00005832BB9EFF3108313B9EFF3118333B1FF
:101AE0004FF0FF30FFF759FE4FF0FF3008BDEFF326
:101AF0001483DB0703D4BDE80840FFF755BFDFF8C8
:101B000008C000DF08BD00BFA919000808B5FFF72D
:101B100045FEEFF305832BB9EFF3108313B9EFF311
:101B2000118333B16FF00500FFF734FE6FF005004D
:101B300008BDFFF7CBFF022805D00D4B1B6813B182
:101B40005B6803B19847DFF82CC0EFF3148313F000
:101B5000020F0AD113F0040FEFF308830CBF203BF0
:101B6000683B23F0070383F3098800DF08BD00BF4B
:101B700040570020BD19000838B50C46034630B167
:101B800040EA010212F0070201D1172906D81846CF
:101B900000222146FFF7F8FD002038BDA1F108041E
:101BA000102519604560251885602250C260012209
:101BB000FFF7EAFD012038BDF8B518B111B132F0D8
:101BC000030304D00023FFF7E0FD0020F8BD0F3130
:101BD00000F1080321F007011E68D3F804E0F41AAD
:101BE0002EF00305641BA14204D934683346002C4F
:101BF000F2D1E7E7446842EA01070C444460BEF1D1
:101C0000000F07D103F108045F602346FFF7BDFD15
:101C10002046F8BD5C195E5167601C600834F4E72B
:101C200038B500B121B90022FFF7B0FD002038BD62
:101C3000A1F1080500F108030022AB420CD15C6859
:101C400024F003054468641B44605AB95A600122B9
:101C5000FFF79CFD012038BD1C681A46002CE2D01D
:101C60002346EAE71B681360F1E72DE9F0410C46D3
:101C700017461D46064600B3C1B102B30BB34FF081
:101C8000000E02FB01F83160C0F804E003EB080E1F
:101C9000F3607361B260C0F810E0FFF778FD2B4687
:101CA000013C06D1A8EB0707EC5101242046BDE812
:101CB000F081DA191A601346F2E70446F6E7144693
:101CC000F4E71C46F2E738B5044628B92546014634
:101CD000FFF75EFD284638BD031D026853E8001F6C
:101CE0008A4202D8BFF32F8F04E0481C43E8000566
:101CF00005B1F3E723688B4211D904F1140353E8CB
:101D0000005F15B9BFF32F8F04E02A6843E8002174
:101D100001B1F4E729462046FFF73AFDDAE700254E
:101D2000F8E738B528B1C3688B4202D803699942F5
:101D300007D36FF003046FF00302FFF72AFD20467C
:101D400038BD031D53E8002F12B9BFF32F8F04E0F5
:101D5000541E43E8004505B1F4E79AB100F11403BD
:101D60001A680A60BFF35F8F53E8002F0C68944233
:101D7000F6D143E8001505B1F2E700242246FFF74B
:101D800008FDDCE76FF00204F8E7036B30B5E3B160
:101D9000CD780024DA78AA420FD31A464A608C60C4
:101DA0008AB19160A4B16160283050E8003F5A1CAC
:101DB00040E8002101B1F8E730BD5A681C46002A0E
:101DC000ECD01346E6E7C162ECE74B608B60C16282
:101DD0000163E9E74B688A6823B19A608A681AB19F
:101DE00053607047C262F9E7036370472DE9F74F0C
:101DF000804600B141B96FF003010020FFF7F1FC0C
:101E0000002003B0BDE8F08F033121F0030303F19C
:101E10000C090193B0FA80F3B9FA89F10B441F2B36
:101E2000E9DD09FB00FAF2B19468D2F800B0166956
:101E300050693CB1A30702D1D368332B05D86FF0AA
:101E40000801DAE7D368002BF9D13EB116F003059B
:101E500001D1824561D96FF00901CEE70028FAD19E
:101E60001CB1054619E0934616462E4BD3F8A80040
:101E700048B1FFF728FF044660B96FF00401FFF78F
:101E8000B0FC2046BDE701223421D3F88800FFF7DB
:101E900093FEF0E7002E3ED10125224F002251464D
:101EA000D7F88400FFF788FE064690B96FF004016A
:101EB000FFF797FC002DA3D0D7F8A85021461DB1FD
:101EC0002846FFF72EFF9BE7D7F88800FFF7A8FE0C
:101ED00096E75246002103F031FF45F00200082347
:101EE000019AA070414623700123626204F10C0044
:101EF000637000234A46C4F804B0A360A362E3629F
:101F000023633346FFF7B1FE074A064B20469A6724
:101F1000FFF769FCB5E70120E1E7002CA5D02846D2
:101F2000DDE700BFD8010020252000082DE9F041A1
:101F30000E4690461D46044618B10378082B00D182
:101F400041B920466FF00301FFF74BFC6FF003002F
:101F5000BDE8F08143783BB96FF00201FFF741FC27
:101F60006FF00200BDE8F081836803B35B78832BD8
:101F70001DD1FFF73DFC204600F005FE054601227D
:101F8000002100F06FFF284600F08AFE0546626AD5
:101F90003146806803F0D4FDEB680BB183F8008014
:101FA000A9682046FFF729FC0020BDE8F08104F174
:101FB0000C00FFF788FE0746A8B1626A31460C3074
:101FC000002503F0BDFD0723394620463B70012361
:101FD000BD707B7087F80380FFF7D7FE314620463F
:101FE000FFF706FCE0E7B5B12A4631462046FFF789
:101FF000FCFB0B4B2046D96900F0B2FD294693202B
:1020000001F06AF8EFF309836FF001009E60C3F8F6
:102010000C80BDE8F08131462046FFF7EAFB9FE7E0
:10202000D8010020F8B543780446002B7AD0867892
:10203000002E3ED0C5686B78002B73D0002605F1CA
:102040000C0701462846FFF7C5FE66702146384654
:10205000FFF767FEAB68002B64D05B78932B61D1F0
:102060003846FFF730FE044600285BD0284600F0D3
:102070008AFD07463246314600F0F4FE384600F04D
:102080000FFE6A6A0746816804F10C0003F058FDF0
:102090000723A67021462370012328466370FB683E
:1020A000E370FFF772FEB9682846BDE8F840FFF715
:1020B0009FBB85686B78ABB3AB684BB35B78832B06
:1020C00026D141682846FFF793FB284600F05BFDC8
:1020D00007463246314600F0C5FE384600F0E0FDC6
:1020E00006466A6A04F10C01806803F029FDF36872
:1020F0000BB1E2781A70B1682846FFF77EFB002327
:10210000214605F10C006370BDE8F840FFF709BEF9
:1021100061682846FFF76CFB21462846BDE8F84079
:10212000FFF733BEF8BD10B500F1280353E8002FC8
:1021300012B9BFF32F8F04E0511E43E8001404B11D
:10214000F4E70AB9002010BDC06A01230028F9D0C5
:10215000821CD2E84F1FC2E8443F04B1F9E711F0F6
:10216000FF0F01D08068F1E710BD00002DE9F041BC
:102170000D4617469846044618B10378082B00D13F
:1021800041B920466FF00301FFF72BFB6FF003000E
:10219000BDE8F08143783BB96FF00201FFF721FB06
:1021A0006FF00200BDE8F081FFF7BDFF0646E8B121
:1021B00001462046FFF70EFE626A06F10C01284632
:1021C00003F0BEFC0FB1F3783B70294604F10C0715
:1021D00000252046FFF711FB314675703846FFF7A2
:1021E000A0FDA36803BB0020BDE8F081B8F1000F9B
:1021F00015D0424629462046FFF7FDFA204B2046DF
:10220000D96900F0ADFC4146832000F065FFEFF393
:1022100009836FF001009D60DF60BDE8F081294611
:102220002046FFF7EBFABBE75B78932BDBD1384610
:10223000FFF749FD06460028D5D0204600F0A3FC54
:1022400007462946012200F00DFE384600F028FD21
:10225000626A0746816806F10C0003F071FC0723EF
:10226000B57031463370012320467370FB68F370FC
:10227000FFF78BFDB9682046FFF7BAFAB3E700BF56
:10228000D801002070B506460D461446FFF7AAFA9D
:10229000EFF305832BB9EFF3108313B9EFF3118339
:1022A00033B16FF005010020FFF79BFA002070BDED
:1022B000304629462246DFF828C0EFF3148313F096
:1022C000020F0AD113F0040FEFF308830CBF203B79
:1022D000683B23F0070383F3098800DF70BD00BF6C
:1022E000ED1D00082DE9F04104460F4690461D46BD
:1022F000FFF77AFAEFF3058333B9EFF310831BB9D5
:10230000EFF31183002B3CD024B12378082B01D1AB
:1023100007B145B120466FF00301FFF762FA6FF095
:102320000300BDE8F081637843B96FF002012046F5
:10233000FFF757FA6FF00200BDE8F08104F10C00DE
:10234000FFF7C1FC0646B8B1626A39460C3003F0AB
:10235000F7FB07233046B5703370012386F80380FE
:1023600073707760B46000F0D9FA20463946FFF701
:102370003EFA2846BDE8F08139462046FFF739FA93
:10238000D8E72046394642462B46DFF808C000DF32
:10239000BDE8F0812D1F0008F8B504460D4617462C
:1023A0001E46FFF727FAEFF305832BB9EFF31083EF
:1023B00013B9EFF31183A3B324B12378082B01D110
:1023C00005B13EB120466FF00301FFF70AFA6FF046
:1023D0000300F8BD63783BB96FF002012046FFF7B8
:1023E00000FA6FF00200F8BD2046FFF79CFE06469B
:1023F00090B100F10C01626A284603F0A1FB0FB115
:10240000F3783B7029462046FFF7F7F93046F46031
:1024100000F084FA0020F8BD29462046FFF7EEF9C7
:10242000DFE7204629463A463346DFF808C000DF9A
:10243000F8BD00BF6D21000870B500283AD084684F
:1024400090E8600064B114F0030302D1C2681B2A53
:102450001FD86FF008010020FFF7B3F9002070BD0E
:10246000C368002BF5D1154BD3F89C0030B901227D
:102470001C21D3F88800FFF79FFB01E0FFF723FC46
:10248000044628B96FF00401FFF79BF9204670BDA0
:1024900001230422A3700023E670227001226560EC
:1024A00020466270A360E360236163612376FFF7D7
:1024B0008AF9EBE705460646D5E700BFD8010020BC
:1024C000F8B52E4B05460F46DE6936B96FF00701A9
:1024D000FFF777F94FF0FF30F8BD10B10378042B08
:1024E00007D028466FF00301FFF76BF96FF0030088
:1024F000F8BD437833B96FF00201FFF762F96FF06E
:102500000200F8BD047E54B9F36A0121C66043613C
:102510000461F0622976FFF75AF90020F8BDC3780C
:10252000DA070AD5C268964207D1FF2C02D16FF0B4
:102530000F01E2E7611CC9B2ECE7DFB19B070AD5E6
:10254000E86896F9203090F920209A4203DA80F862
:10255000203000F033FB39462846FFF736F9314684
:10256000284600F0FDFA3946532000F0B5FD6FF023
:102570000100F8BD2846FFF72BF9C0E7D80100207D
:1025800038B5334B0446DD6935B96FF00701FFF705
:1025900018F94FF0FF3038BD10B10378042B07D085
:1025A00020466FF00301FFF70CF96FF0030038BD10
:1025B000437833B96FF00201FFF703F96FF00200BF
:1025C00038BDC3689D4202D06FF00D01F4E7017E73
:1025D00011B96FF00E01EFE70139C9B20176FFF7CB
:1025E000F9F8237E3BBB63690BB122691A6122694A
:1025F0001AB35361E3789B0705D595F92120EB6A5F
:10260000EBB985F82020A36893B1204600F0BBFA0F
:1026100000220546114600F025FCEB6A0121E56029
:102620006361002320462361EC622176FFF7CFF837
:10263000002000F0E9FB002038BDEB62DAE7996882
:1026400021B191F920108A42B8BF0A465B69D7E7E9
:10265000D80100202DE9F0410446002601270CB9DD
:10266000BDE8F081E378D4F814801B0718D52676EE
:1026700000212046FFF7AEF8A3688BB1204600F09A
:1026800082FA00220546114600F0ECFBEB6AE56099
:102690000121636120462661EC622776FFF797F8F7
:1026A0004446DCE710B50446FFF78CF8EFF30583EA
:1026B0002BB9EFF3108313B9EFF3118333B16FF03C
:1026C00005010020FFF77DF8002010BD2046DFF84F
:1026D00028C0EFF3148313F0020F0AD113F0040F94
:1026E000EFF308830CBF203B683B23F0070383F321
:1026F000098800DF10BD00BF3924000838B5044642
:102700000D46FFF761F8EFF305832BB9EFF3108364
:1027100013B9EFF311833BB120466FF00501FFF7CA
:1027200050F86FF0050038BD20462946DFF804C098
:1027300000DF38BDC124000810B50446FFF749F892
:10274000EFF305832BB9EFF3108313B9EFF3118384
:102750003BB120466FF00501FFF733F86FF005003D
:1027600010BD2046DFF804C000DF10BD8125000841
:1027700030B500F10C02C189D2E85F3F994202D81E
:10278000BFF32F8F04E05C1CC2E8554F05B1F3E79F
:10279000C0899BB2984294BF0020012030BD38B55B
:1027A000054610B10378052B07D028466FF00301CA
:1027B000FFF711F86FF0030038BD437833B96FF0BD
:1027C0000201FFF708F86FF0020038BD84686CB1B1
:1027D000FFF705F8284600F0D6F90122002100F0A5
:1027E00041FB2846FEF7F9FF002038BDFFF7C0FF88
:1027F00018B96FF010012846E3E72846FEF7EFFF0F
:10280000F2E7000010B50446FEF7E8FFEFF305839A
:102810002BB9EFF3108313B9EFF3118323B314B182
:102820002378052B07D020466FF00301FEF7D3FF76
:102830006FF0030010BD63783BB96FF002012046D2
:10284000FEF7C9FF6FF0020010BD2046FFF790FFB2
:1028500038B1204600F062F82046FEF7C0FF0020A5
:1028600010BD6FF01001EAE72046DFF808C000DF76
:1028700010BD00BF9F27000810B5D0E85F3F5A1C6D
:10288000914200D80022C0E8542F04B1F5E798B275
:1028900010BD000070B5204C04F15E0504F1620625
:1028A000B4F85C10D5E85F3F13B9BFF32F8F04E095
:1028B0005A1EC5E8502F00B1F4E79BB23BB3304637
:1028C000FFF7DAFF636E53F8200000B30378013B93
:1028D000062BE5D801A252F823F000BFF928000822
:1028E000A1280008FF280008A128000803290008E3
:1028F000072900080B290008A36E9847D0E7E36E6C
:10290000FBE7236FF9E7636FF7E7A36FF5E70020B5
:10291000BDE8704000F078BAD801002070B5164CC0
:102920000546B4F85C1004F15E02D2E85F3F9942BC
:1029300002D8BFF32F8F04E0581CC2E8560F06B12F
:10294000F3E79BB2994210D904F16000FFF794FFBE
:10295000636E43F82050637A23B94FF08052074BDF
:102960005A6070BD0123E37270BD29460220BDE8A4
:10297000704000F0E5BC00BFD801002000ED00E091
:10298000084B4FF0FF30084ADB685268B3FBF2F3A4
:10299000064A013B536000239360FF22044B83F8F7
:1029A00023207047D8010020209D000810E000E09F
:1029B00000ED00E00722014B1A60704710E000E0D4
:1029C000014B1B68704700BF10E000E038B51D4C9C
:1029D000FFF7F6FFD4E90423013243F10003C4E911
:1029E0000423A36D03B1984700F064F9002000F0C0
:1029F0000BFAA36C2BB1226C216A8A4202D02164AB
:102A0000636438BD636C0BB1013B6364636C002B82
:102A1000F7D1237A022BF4D1E56A002DF1D095F994
:102A2000201092F920309942EBD1284600F0BCF8F2
:102A3000206C00F0D5F8284600F0D6F92564A36C88
:102A4000DEE700BFD8010020034B10B5DC6920464B
:102A5000FEF7AAFE204610BDD801002008B5FEF7FB
:102A6000A8FEDFF810C000DF4FF0FF310020FEF7B6
:102A700097FEFEE72131000812F0020F02F001027A
:102A800010B522D100F1280382B153E8000F00EA0B
:102A900001028A4203D0BFF32F8F002005E020EA15
:102AA000010243E8002404B1EFE710BD53E8000F32
:102AB000084203D1BFF32F8F002005E020EA010276
:102AC00043E8002404B1F1E710BD806A01EA000385
:102AD0001AB1994218BF002010BD002B08BF00207A
:102AE00010BD0000002310B54370044683789A0798
:102AF00008D513F0100F016B0E4B0FD0D3F88C00DC
:102B0000FFF70FF9A378DB0712D50A4B2146D3F85C
:102B1000900038B1BDE81040FFF703B9D86FFFF758
:102B20007FF8EFE7D3F88800BDE81040FFF778B8EA
:102B300010BD00BFD801002010B5044610B10378C5
:102B4000012B05D020460021FEF72DFE002010BDF0
:102B50004378002BF6D04168FEF725FE606810BD73
:102B600010B561B191F9202083681BB193F9204021
:102B7000944205DAC8608B60816003B1D96010BDF2
:102B800018469B68F1E783682BB19A68826002B1AE
:102B9000D0600022DA601846704710B10378012B2C
:102BA00000D07047C068F8E7C36833B182689A60A4
:102BB000826802B1D3600023C360704710B501463C
:102BC00004462378012B07D00846FFF7EDFF204687
:102BD000BDE81040FFF7C4BFE468002CF1D110BD80
:102BE0000123014643700148FFF7BABFFC010020F2
:102BF0004B1C154A30B50FD1936B00213BB94FF0F8
:102C0000FF3441610361C46121B1086130BD1946DF
:102C10001B69F3E7906330BD536B002413B1DD698A
:102C2000A9420AD2C1614461036154B120611BB160
:102C3000DA695861511AD96130BD1C46491B1B69BC
:102C4000ECE75063F3E700BFD801002010B5C4697A
:102C50004269631C10D11AB9104B9B6B98421BD16F
:102C6000036903B15A6142691AB1136100234361D8
:102C700010BD0A4A936310BD1AB9084B5B6B9842AA
:102C80000AD103691BB1D9695A612144D9614269EA
:102C9000002AEAD1014A536310BD00BFD8010020C9
:102CA00090F82230806B13F0100F0CBF6030203092
:102CB0007047000038B52E4D6C6B002C57D0E3697F
:102CC000013BE361002B52D16378532B37D008D8F6
:102CD000332B2BD0432B2CD0132B07D1FEF76EFDBB
:102CE00004E0732B37D017D8632B2ED02046FFF784
:102CF000D7FF01682046FEF75AFD2046FFF754FF34
:102D00002046FFF76DFF246924B1E369002BDBD077
:102D1000002363616C6338BD832B22D0932BE5D1F4
:102D20002046FFF73AFFFEF761FDDFE7FEF743FDC0
:102D3000DCE72046FFF731FFFEF742FDD6E72046ED
:102D4000FFF72BFFFEF742FDD0E72046FFF725FFF8
:102D5000FEF742FDCAE72046FFF71FFFFEF740FDE2
:102D6000C4E72046FFF719FFFEF746FDBEE738BD72
:102D7000D801002001230A4A90F920104370243220
:102D8000936810B51BB193F920408C4205DCC260FA
:102D90008360906003B1D86010BD1A469B68F1E76C
:102DA000D8010020044B1B682BB11B691BB1034ADF
:102DB000126A506C1847704740570020D801002015
:102DC000074BD96951B10B6B8A6B934203D21A68D6
:102DD000044B9A4202D0012000F0B2BA704700BF03
:102DE000D8010020A52E5AE2022310B543700446F4
:102DF000044B1862FFF7E4FF2046BDE81040FEF7E1
:102E0000D7BC00BFD8010020154B10B5D9690446C6
:102E10001A7AA8B9022ADC6A20D1F9B1F4B194F97E
:102E2000202091F920309A4218DD2046FFF7BCFEA1
:102E30000846FFF79FFF2046BDE81040FFF7D4BFCC
:102E4000022A06D129B190F9202091F920309A4226
:102E5000EEDC2046BDE81040FFF7C2BE10BD00BF4B
:102E6000D801002070B504460E461546FEF79FFCBB
:102E70002046FFF715FF06602046FFF7E7FE2046D5
:102E80001DB1BDE87040FFF7BFBFBDE87040FFF760
:102E9000A7BE38B543780446332B13D190F82320CE
:102EA000416AFFF7E9FD054660B101460022204670
:102EB000FFF7D8FF2A4694F82310606ABDE838402F
:102EC000FEF77ABC38BD00002DE9F04F85B0824690
:102ED0000391029338B96FF00301FEF761FC002003
:102EE00005B0BDE8F08F002A39D002F110059468D2
:102EF000E0CD44B1A30702D1D368472B06D86FF0C9
:102F000008010020E9E7D368002BF8D13DB168073C
:102F100002D1002E40F0CE806FF00A01F1E72FB110
:102F20007B1E372B03D96FF00B01EAE718271EB180
:102F30007107F1D1472EEFD95368D2F80080019381
:102F4000D4B95F4BD3F8900078B1FEF7BCFE0446CD
:102F5000A0BB6FF00401FEF723FC2046C0E79046BB
:102F60001827164615460192EBE701224821D3F8AF
:102F70008800FEF721FEEAE74FF0000B2DBBDFF8DB
:102F80004091002E7ED14F4AD9F88C00566D002812
:102F900078D0FEF798FE054698B96FF0040100203E
:102FA000FEF7FEFBBBF1000F99D0D9F890502146F7
:102FB000002D71D02846FEF7B4FE90E74FF0010BCC
:102FC000DCE74BF0100B4BF0020B9DF804300122B4
:102FD0007FB284F802B0E37000232270A360E36044
:102FE00023616361A361E36184F823306362A362B8
:102FF000E362A6F140036270FD222B44C4F8048012
:1030000084F82070A363304B84F8217084F8222068
:1030100025636663C4F83CA02B602A4B1B685B07E2
:1030200043D50435B6084FF0CC31A6F111032A463A
:10303000002B36D106F18046113E05EB860505F1E1
:103040003403002245F8042B9D42FBD11F4B204640
:103050001F4A85E808044FF08073AB60039B45F876
:10306000143C174B9A66FEF79DFB1A4B1B68F3B195
:103070009B68E3B102992046984760642046FFF7B9
:10308000C3FE6AE72A463146D9F87C00FEF794FD74
:103090000546002897D180E7D9F88800FEF7C0FDE3
:1030A0001DE742F8041B013BC2E7A56BC7E7029B83
:1030B0006364E3E7002F7FF433AF182738E700BFDE
:1030C000D8010020209D0008A52E5AE25D2A0008A4
:1030D000932E000840570020F8B5104D07460E46C5
:1030E000EC69CCB12B7A022B04D02046FFF75CFDB3
:1030F0000020F8BDE86A80B12046FEF757FB314654
:1031000020466770FFF774FD05F12400FFF73BFDD3
:10311000FFF76AFE0120F8BD2046F8BDD801002067
:1031200038B51B4DEC69002C30D0E06AFFF792FAFD
:10313000A06930B100221146FFF794FEA069FEF7A6
:1031400034FB2B7A022B21D1EB6AFBB1EFF309831D
:103150001048A363FFF717FDFFF746FE0023EB615E
:10316000E378DB0701D5A3693BB12046FFF7BAFC42
:103170002046BDE83840FEF71DBB0422E3606270C4
:10318000EB6BA36003B1DC60EC63F1E738BD00BF1B
:10319000D8010020FC010020F8B507460E46154670
:1031A0001C46FEF7FEFAEFF305832BB9EFF310830D
:1031B00013B9EFF3118333B16FF005010020FEF76F
:1031C000EFFA0020F8BD384631462A462346DFF89C
:1031D00028C0EFF3148414F0020F0AD114F0040F86
:1031E000EFF308840CBF203C683C24F0070484F310
:1031F000098800DFF8BD00BFC92E00080023FFF7D3
:10320000CBBF000008B50346EFF305822AB9EFF300
:10321000108212B9EFF311822AB118460021FEF78D
:10322000C2FA002008BDDFF808C000DF08BD00BFFB
:10323000392B000808B5EFF305832BB9EFF31083A2
:1032400013B9EFF3118323B10020FEF7ADFA00208C
:1032500008BDDFF808C000DF08BD00BF492A00082C
:103260000C4A30B5D36C002413B11D69A9420AD2AF
:1032700001618460C3601BB11D699860691A19619E
:103280002CB1E06030BD1C46491BDB68ECE7D06424
:1032900030BD00BFD801002070B5134DEC6C04B3F5
:1032A00023690126013B23612369D3B9E3680BB18C
:1032B000A2689A60EB64002304F11801686D1A4655
:1032C000FFF710F818B12146032000F039F8E37831
:1032D000012B07D161692046FFF7C2FFEC6C002C7F
:1032E000E2D170BD6670F9E7D80100200F4B13B52D
:1032F0000F4C08211A6E586EFEF7C4FF606590B13E
:103300000C4BA3654FF0FF3300226946606DFFF759
:1033100043F80028F6D19DE80300FEF750FA019823
:10332000009B9847EEE702B010BD00BF209D00084B
:10333000D80100209932000808B5FEF797F9FCE79C
:1033400005460C4608B5FFF775FF6B1E0246042BB9
:1033500024D8DFE803F0030D13191E002046FFF701
:1033600051FF2246034601210F48FDF78BFFFEE780
:10337000234602210D48FDF785FFF8E72346032188
:103380000B48FDF77FFFF2E704210A48FDF77AFFBB
:10339000EDE705210848FDF775FFE8E729460748EE
:1033A000FDF770FFE3E700BFEC9D00083D9E0008BD
:1033B000939E0008F89E0008539F0008B39F0008E2
:1033C0007FB50F23072101A8019302230293002355
:1033D00003934FF4A05304934FF48053059300F0EC
:1033E000D1FBB0FA80F0400907B05DF804FB0000A3
:1033F0000F490020D1F8883043F47003C1F88830B9
:103400000C4B1A6842F001021A6098601A6822F0A8
:10341000847222F480321A60074A5A601A6822F4D1
:1034200080221A60D8604FF000638B60704700BF45
:1034300000ED00E00038024010300024174A18491F
:10344000936803F00C03042B10B50DD0082B0DD09E
:10345000144B0B60114B144A9B68C3F30313D25CEB
:103460000B68D3400B6010BD104BF2E754685068F6
:103470006302526800F03F0048BF0C4BC2F3881251
:1034800058BF084BB3FBF0F35343044A5268C2F3EE
:10349000014201325200B3FBF2F3DAE70038024096
:1034A000880200200024F4001CA1000800127A0009
:1034B000184B1A6C42F0805200B51A648FB01B6C26
:1034C00003F080530193019B01230293B8B94FF499
:1034D00080334FF480020393022302A8099208224A
:1034E00008930A924FF4D8720C9309230B920D9310
:1034F00000F05EF930B100200FB05DF804FB4FF42E
:10350000A023E6E700F01CF90028F4D1FFF758FFEC
:10351000F2E700BF00380240F0B58FB0BFF34F8F25
:10352000BFF36F8F314B0021C3F85012BFF34F8FA1
:10353000BFF36F8F5A6942F400325A61BFF34F8F65
:10354000BFF36F8FC3F88410BFF34F8FD3F8802081
:1035500043F6E076C2F3C904C2F34E32A507520126
:1035600002EA060E284621464EEA0007013900F11C
:103570004040C3F860724F1CF6D1203A12F1200F80
:10358000EED1BFF34F8F5A6942F480325A61BFF3D4
:103590004F8FBFF36F8F164B002102A81A6C42F0B9
:1035A00080521A6410221B6C069203F080530A9218
:1035B0004FF4D87203910193019B03230991029365
:1035C00001230B920593022308930C9309230D9377
:1035D00000F0EEF810B100200FB0F0BD00F0B0F830
:1035E0000028F8D1FFF7ECFEF6E700BF00ED00E0A1
:1035F0000038024008B50120FFF75AFF30B9FFF745
:1036000057FF18B9FFF788FF00B9FEE708BD0000B3
:10361000DFF820D0002103E0074B5B584350043112
:103620000648074B42189A42F6D3FFF7E1FEFCF733
:1036300001FE70470000052018A50008C801002001
:10364000480C0020FEE77047074A032008B51368BE
:1036500043F40073136000F017F80F2001F0CEF967
:10366000FFF7F1FF002008BD003C0240024A13684A
:1036700001331360704700BF44570020014B1868A6
:10368000704700BF44570020074A0002D36800F487
:10369000E06023F4E0631B041B0C43F0BF6343F4BE
:1036A00000330343D360704700ED00E0704770477C
:1036B00070B5026841F214060446955915F04005AC
:1036C00021D0FDF759FC236840229A51012384F848
:1036D0004430002384F84530236841F214054FF448
:1036E00080325A515B591B040CD52046FFF7DFFF8F
:1036F00023684FF400425A51012384F844300023D8
:1037000084F8453070BD9359DA07E5D5FFF7CEFF51
:1037100001232268935184F8443084F84550DBE754
:10372000064A0129136923F00403136101D130BF54
:10373000704740BF20BF20BF704700BF00ED00E0D2
:10374000194B37B51A6C194C42F080521A641B6C35
:1037500003F080530193019B236843F4803323607B
:10376000FFF78CFF05466368DA030CD5236843F442
:1037700000332360FFF782FF0C4C054663689B0310
:103780000AD5002006E0FFF779FF401BB0F57A7FED
:10379000E9D9032003B030BDFFF770FF401BB0F53F
:1037A0007A7FEBD9F5E700BF003802400070004097
:1037B00003682DE9F3410446D80710D4236899071C
:1037C00061D42368190700F1B08023685A0700F11B
:1037D000D180A269002A40F03B81002015E09A4B7D
:1037E0009A6802F00C02042A07D09A6802F00C02D0
:1037F000082A0DD15B685A020AD5934B1B689B03BC
:10380000DCD56368002BD9D1012002B0BDE8F0817E
:1038100063688D4DB3F5803F11D12B6843F480333D
:103820002B60FFF72BFF884D06462B689F03C5D4FE
:10383000FFF724FF801BC828F7D90320E5E79BB9D1
:103840002B6823F480332B602B6823F480232B60B8
:10385000FFF714FF06462B689803AFD5FFF70EFF5E
:10386000801BC828F7D9E8E7B3F5A02F2B6803D150
:1038700043F480232B60D0E723F480332B602B6844
:1038800023F48023CCE7704B9A6812F00C0F07D01A
:103890009A6802F00C02082A16D15B68590213D408
:1038A000694B1A68920702D5E268012AACD1186800
:1038B000F82292FAA2F2B2FA82F122698A4020F04A
:1038C000F8010A431A607CE7E3685F4DE3B12B68B7
:1038D00043F001032B60FFF7D1FE06462B689F07DC
:1038E0000CD52968F82393FAA3F3B3FA83F223697A
:1038F000934021F0F80213432B6062E7FFF7BEFE0E
:10390000801B0228EAD998E72B6823F001032B607B
:10391000FFF7B4FE06462B6898077FF552AFFFF716
:10392000ADFE801B0228F6D987E76369464D83B157
:103930006B6F43F001036B67FFF7A0FE06466B6FEA
:103940009B073FF542AFFFF799FE801B0228F6D98F
:1039500073E76B6F23F001036B67FFF78FFE06467B
:103960006B6F9F077FF531AFFFF788FE801B022842
:10397000F6D962E7344B1A6CD00027D41A6C0126B2
:1039800042F080521A641B6C03F080530193019B38
:103990002E4D2B68D9051BD5A3682B4D012B27D1A4
:1039A0002B6F43F001032B6741F28835FFF766FE6A
:1039B000254F80463B6F9B073FD5002E3FF409AF54
:1039C000214A136C23F08053136402E70026DFE7DB
:1039D0002B6843F480732B60FFF750FE07462B687B
:1039E000DA05D9D4FFF74AFEC01B6428F7D924E7CB
:1039F000ABB92B6F41F2883823F001032B672B6F93
:103A000023F004032B67FFF739FE07462B6F980757
:103A1000D3D5FFF733FEC01B4045F7D90DE7052B83
:103A20002B6F03D143F004032B67B9E723F00103A5
:103A30002B672B6F23F00403B5E7FFF71FFEA0EB06
:103A40000800A842B6D9F8E60038024000700040ED
:103A50002E4DAB6803F00C03082B3FF4D5AE2B685A
:103A6000022A23F080732B6042D1FFF707FE06463F
:103A70002B68990136D447F6C07696FAA6F64FF42D
:103A80004032B6FA86F692FAA2F24FF07061B2FABC
:103A900082F091FAA1F1226AB1FA81F1E36913434C
:103AA000626A02FA06F6A26A43F0005352083343F0
:103AB000013A82401343E26A144C02FA01F10B43CB
:103AC0006B602B6843F080732B60FFF7D7FD0546D2
:103AD00023689A013FF581AEFFF7D0FD401B022815
:103AE000F6D9AAE6FFF7CAFD801B0228C0D9A4E6D2
:103AF000FFF7C4FD04462B689B017FF56EAEFFF710
:103B0000BDFD001B0228F6D997E600BF0038024031
:103B1000194A936803F00C03042B10B503D0082B4B
:103B200003D0164810BD164810BD516847F6C07442
:103B3000536801F03F0113F4800F536894FAA4F026
:103B4000B0FA80F003EA04034FF4403223FA00F3A2
:103B500014BF0B480948B0FBF1F05843064B5B68B3
:103B600092FAA2F2B2FA82F203F44033D340013364
:103B70005B00B0FBF3F010BD003802400024F400FD
:103B800000127A00514A136803F00F038B422DE9AB
:103B9000F04104460D462FD32268960739D4D0074A
:103BA0003FD44A4A136803F00F039D427BD3226837
:103BB000510700F18380130707D5454A21699368AF
:103BC00023F4604343EAC1039360FFF7A1FF404B36
:103BD000F0229B6892FAA2F2B2FA82F203F0F003AA
:103BE000D3403C4AD35CD8403B4B18600F2000F0D8
:103BF00005FF0020BDE8F081136823F00F030B439D
:103C00001360136803F00F039942C5D00120BDE88B
:103C1000F0812F49A0688B6823F0F00303438B6089
:103C2000BDE761682A4B01291A681DD112F4003FD3
:103C3000ECD09A6841F28838254F22F003020A43FB
:103C40009A60FFF71BFD63680646012B14D1BB6821
:103C500003F00C03042BA4D0FFF710FD801B40459C
:103C6000F5D90320BDE8F081022902D112F0007FCE
:103C7000DEE712F0020FDBE7022B0FD1BB6803F087
:103C80000C03082B8DD0FFF7F9FC801B4045F5D9BC
:103C9000E7E7FFF7F3FC801B4045E2D8BB6813F071
:103CA0000C0FF6D17DE7136823F00F032B4313604D
:103CB000136803F00F039D42A8D178E70449E06838
:103CC0008B6823F4E05303438B6074E7003C0240AD
:103CD000003802401CA1000888020020084B4FF465
:103CE000E0529B6892FAA2F2B2FA82F203F4E05335
:103CF000D340044AD35C044A1068D840704700BFE0
:103D0000003802402CA1000888020020084B4FF424
:103D100060429B6892FAA2F2B2FA82F203F4604324
:103D2000D340044AD35C044A1068D840704700BFAF
:103D3000003802402CA10008880200200F230360F5
:103D40000B4B9A6802F0030242609A6802F0F0029C
:103D500082609A6802F4E052C2609B68DB0803F458
:103D6000E0530361034B1B6803F00F030B607047C4
:103D700000380240003C024070470000304A0368AF
:103D8000904212D0B0F1804F0FD0A2F57C42904209
:103D90000BD002F58062904207D002F5806290421B
:103DA00003D002F5784290421DD14A6823F0700397
:103DB0001343234A904204D123F44073CA68134347
:103DC00028E0B0F1804FF7D01E4A9042F4D002F5BF
:103DD00080629042F0D002F580629042ECD002F511
:103DE00078429042E8D0184A9042E5D002F58062CD
:103DF0009042E1D002F580629042DDD0A2F5983287
:103E00009042D9D002F580629042D5D002F580620E
:103E10009042D1D04A6923F08003134303608B683A
:103E2000C3620B688362064B984206D003F5806339
:103E3000984202D00123436170470B690363F9E79D
:103E400000000140000400400040014010B504465D
:103E5000A0B190F83D3003F0FF021BB980F83C2080
:103E6000FFF78AFF02232068211D84F83D30FFF709
:103E700085FF0123002084F83D3010BD012010BDD6
:103E800010B50124036A8A408C4023EA04030362CC
:103E9000036A1A43026210BD10B50446012200688D
:103EA000FFF7EEFF2368084A934203D002F58062D1
:103EB000934203D15A6C42F400425A641A680020BB
:103EC00042F001021A6010BD00000140FFF7E4BF9C
:103ED00070472DE9F041069D04460F461646984668
:103EE0002168CA6937EA02030CBF01220022B242EC
:103EF00002D00020BDE8F0816B1CF2D09DB9236890
:103F000003201A6822F4D0721A609A6822F0010223
:103F10009A60202384F8693084F86A30002384F89A
:103F20006830BDE8F081FFF7A9FBA0EB08008542EF
:103F3000D6D8E4E738B504460568C3692169A268A4
:103F400028680A4361690A4393491A430140206A79
:103F50000A43E1682A606A6822F440520A436A60B0
:103F6000A269A968024321F430610A43AA608B4A1E
:103F7000954219D102F594328949D2F8902002F085
:103F80000302B3F5004F8A5C40F0B380082A00F2C8
:103F9000AD80DFE812F026007B00E900AB00F50001
:103FA000AB00AB00AB00FB007E4A954207D102F5A7
:103FB000FA327D49D2F8902002F00C02E1E77B4A08
:103FC00095422BD102F5F832D2F8902002F030025F
:103FD000102A00F0D28016D8DAB9B3F5004F40F0BD
:103FE0009F80FFF77BFE61684A0802EB4003B3FB4A
:103FF000F1F39BB2002023F00F02C3F342032168C8
:104000001343CB6038BD202A00F0AB80302A00F08B
:10401000BA80B3F5004F69D0012038BD644A95429B
:104020000ED102F5F632D2F8902002F0C002402AFA
:1040300000F0A380D0D9802A00F09380C02AE6E760
:104040005C4A954210D102F5F432D2F8902002F485
:104050004072B2F5807F00F09080BDD9B2F5007F4C
:104060007FD0B2F5407FD2E7534A954217D102F58F
:104070009232D2F8902002F44062B2F5806F7CD088
:1040800007D8002AC5D1B3F5004F54D1FFF73EFE43
:10409000A9E7B2F5006F64D0B2F5406FB7E7474AC1
:1040A00095420FD102F5E032D2F8902002F440524E
:1040B000B2F5805F61D08FD9B2F5005F51D0B2F513
:1040C000405FA4E73E4A9542A3D102F5DE32D2F822
:1040D000902002F44042B2F5804F4ED07FF67CAF84
:1040E000B2F5004F3DD0B2F5404F90E701200023DC
:1040F00081E7082A90D801A353F822F02141000853
:10410000374100083D4100081940000853410008AC
:1041100019400008194000081940000859410008DA
:10412000FFF7DCFD636800EB5300B0FBF3F080B2F7
:10413000E860002038BDFFF7E9FDF3E76268530847
:1041400003F5740303F51053B3FBF2F39BB2EB607A
:10415000EFE7FFF7DDFCE5E76268530803F500438E
:10416000F2E7B3F5004FE9D16068430803F1F47357
:1041700003F59043B3FBF0F33BE7B3F5004FE8D111
:10418000FFF7C6FC2FE7B3F5004FE5D160684308A1
:1041900003F58033EEE700BFF369FFEF0010014045
:1041A00034A100080044004038A100080048004045
:1041B000004C0040005000400014014000780040D6
:1041C000007C0040436ADA0710B506D50168846AAE
:1041D0004A6822F4003222434A609C0706D50168EF
:1041E000C46A4A6822F4803222434A60590706D5DD
:1041F0000168046B4A6822F4802222434A601A074D
:1042000006D50168446B4A6822F4004222434A60A2
:10421000DC0606D50168846B8A6822F4805222434A
:104220008A60990606D50168C46B8A6822F4005238
:1042300022438A605A0610D50168046C4A68B4F5B6
:10424000801F22F4801242EA04024A6005D14A68C3
:10425000446C22F4C00222434A601B0606D5026861
:10426000816C536823F400230B43536010BD37B5B2
:1042700000250446C566FFF701FA22680346126866
:10428000120709D42023002084F8693084F86800DC
:1042900084F86A3003B030BD6FF07E424FF40011F5
:1042A000204600922A46FFF714FE0028EAD0032099
:1042B000F0E710B5044660B390F8693003F0FF02F0
:1042C0001BB980F86820FFF703FE226824232046EC
:1042D00084F86930136823F001031360FFF72AFEA6
:1042E000012816D0636A13B12046FFF76BFF2368DD
:1042F00020465A6822F490425A609A6822F02A02B4
:104300009A601A6842F00102BDE810401A60FFF797
:10431000AEBF012010BD0000F8B5FFF78FF8FFF722
:1043200093F9BFF34F8FBFF36F8F1F4B0021C3F87B
:104330005012BFF34F8FBFF36F8F5A6942F40032B0
:104340005A61BFF34F8FBFF36F8FC3F88410BFF371
:104350004F8FD3F8802043F6E076C2F3C904C2F34E
:104360004E32A507520102EA060E284621464EEAC1
:104370000007013900F14040C3F860724F1CF6D1CC
:10438000203A12F1200FEED1BFF34F8F5A6942F459
:1043900080325A61BFF34F8FBFF36F8FFFF72AF957
:1043A000BDE8F840FFF74AB800ED00E0F0B50E4672
:1043B000154689B0044684493046FCF745FE074659
:1043C00082492846FCF740FE01463846FCF71EFEAF
:1043D0002060013004D13D227D497E48FCF7AEFECD
:1043E00023687D4A934200F0B38021D8A2F5006291
:1043F000934200F0858002F58062934200F0948041
:10440000A2F5006293421DD1744B1A6A42F4003245
:104410001A621A6A22F400321A621A6C42F40032EA
:104420001A641B6C03F400330193019B012365E0C4
:104430006B4A934200F0B48032D8A2F58062934276
:1044400000F09A8060493046FCF7C2FD5F4928467B
:10445000FCF7BEFD721C03D00121304600F000FCC9
:104460006B1C03D00121284600F0FAFB4FF41653D1
:10447000268365832046A3600023E3602361636194
:1044800000F032FC2268574B9A4207D10122564B6A
:10449000214656481A60442201F052FB09B0F0BD93
:1044A000534A934217D002F580629342CAD14B4BD4
:1044B0005A6A42F020025A625A6A22F020025A6274
:1044C0005A6C42F020025A645B6C03F0200305939F
:1044D000059B052312E0414B5A6A42F010025A62D2
:1044E0005A6A22F010025A625A6C42F010025A6460
:1044F0005B6C03F010030093009B00236360A1E753
:10450000364B1A6A42F480221A621A6A22F4802216
:104510001A621A6C42F480221A641B6C03F4802322
:104520000293029B0223E9E72C4B1A6A42F4002211
:104530001A621A6A22F400221A621A6C42F40022E9
:104540001A641B6C03F400230393039B0323D5E736
:10455000224B1A6A42F480121A621A6A22F48012FA
:104560001A621A6C42F480121A641B6C03F48013F2
:104570000493049B0423C1E7184B1A6A42F080425B
:104580001A621A6A22F080421A621A6C42F0804261
:104590001A641B6C03F080430693069B0623ADE769
:1045A0000E4B1A6A42F000421A621A6A22F0004266
:1045B0001A621A6C42F000421A641B6C03F000434A
:1045C0000793079B072399E780A00008F09F000846
:1045D00045A1000882A100080050004000380240B8
:1045E000007C004000480040C814002048570020CC
:1045F00000100140816000F077BB000038B5044630
:104600004568204600F0A6FB0028FAD07023034A34
:104610006B43D358586AC0F3080038BD8C5700204C
:1046200070B505460C464668284600F0A3FB0028F6
:10463000FAD07023034AC4F308047343D3589C622E
:1046400070BD00BF8C57002043692DE9F0410D4635
:10465000394CD90720602CD58168DFF8E8E0826802
:1046600001EA0E01354F8368354E714502EA0702B3
:1046700003EA060303D14FF0010EC0F808E0BA4286
:1046800002D14FF480778760B34202D14FF4803675
:1046900086602C48814205D028498A4202D0284AA7
:1046A000934206D1284B0121284A1B6852F8250065
:1046B00098472368DA685B69920708D09F0706D598
:1046C000214B0021214A1B6852F825009847236896
:1046D00099695A698E075B690AD5900508D519044E
:1046E00006D5194B0521194A1B6852F82500984731
:1046F00022689769566917F00407526906F48066C4
:1047000009D046B1120406D50F4B07210F4A1B688A
:1047100052F82500984723685B695FB156B11B04C6
:1047200008D5094B0221094A1B6852F82500BDE84B
:10473000F0411847BDE8F081CC14002000030008C8
:104740000000031003000004141500200C150020C5
:1047500000210148FFF778BF00640040FFF7F8BF71
:10476000FFF7F6BF01210148FFF76EBF0068004068
:10477000FFF7F8BFFFF7F6BF00B58DB00A2800F2CB
:104780008E80DFE800F00614202C3844505C6874FA
:104790008000454B45481A6B42F001021A631B6BBF
:1047A00003F001030193019B0DB05DF804FB3E4B48
:1047B0003F481A6B42F002021A631B6B03F00203BC
:1047C0000293029BF0E7384B3A481A6B42F004021E
:1047D0001A631B6B03F004030393039BE4E7324B60
:1047E00035481A6B42F008021A631B6B03F008038A
:1047F0000493049BD8E72C4B30481A6B42F010020C
:104800001A631B6B03F010030593059BCCE7264B43
:104810002B481A6B42F020021A631B6B03F0200333
:104820000693069BC0E7204B26481A6B42F04002D5
:104830001A631B6B03F040030793079BB4E71A4B03
:1048400021481A6B42F080021A631B6B03F080034D
:104850000893089BA8E7144B1C481A6B42F480721B
:104860001A631B6B03F480730993099B9CE70E4B3F
:1048700017481A6B42F400721A631B6B03F400733F
:104880000A930A9B90E7084B12481A6B42F4806225
:104890001A631B6B03F480630B930B9B84E70E4836
:1048A000FCF7F0FC00207FE70038024000000240E7
:1048B0000004024000080240000C024000100240C8
:1048C0000014024000180240001C02400020024078
:1048D00000240240002802409EA10008431C10B59D
:1048E000044604D1742206490648FCF727FC2046FA
:1048F000002100F01BF904F00F040120A04010BDBE
:10490000BFA10008E8A1000870B54B1C04460E4684
:10491000218216D0C1F30310FFF72EFF0546304663
:10492000FFF7DCFF238A074A03F00F03656120606D
:1049300052F82330A36105F1100318356360A560B8
:10494000E56070BDFCA10008B0F9100000F088B966
:1049500010B58369446971B9216893FAA3F2B2FA78
:1049600082F20320520000FA02F221EA020293FAD4
:10497000A3F3226010BD226893FAA3F1B1FA81F18A
:1049800093FAA3F303204900B3FA83F300FA01F189
:104990005B0022EA0102012101FA03F313432360C1
:1049A00010BD000070B5134C23681A69950707D530
:1049B000DA68900704D56FF002021A61FCF7B0FBC9
:1049C00023681A69510713D5DA68520710D56FF0BA
:1049D0000402094E1A615D6A3368EB1AB3F57A7FF7
:1049E00006D3FEF743FE236805F57A729A633560B5
:1049F00070BD00BF0C5B00201815002030B589B0D9
:104A0000284C01A903A8FFF799F9FFF767F9264B8E
:104A100001901A6C42F008021A641A6C02F0080243
:104A20000292029A1A6A42F008021A621A6A22F084
:104A300008021A62A3F50B33069A23604FF0FF3386
:104A4000E3601A4B002A2BD10025B0FBF3F00138AC
:104A50002561A560606013486561A561FFF7F6F9FF
:104A6000134B2946134A9B680E48C3F808214FF49C
:104A70008022114B5A60FFF729FA04210948FFF7F9
:104A800025FA23680D4A2846596A1160126802F512
:104A90007A729A63DA6842F00402DA6009B030BDD3
:104AA0004000D1E70C5B00200038024040420F007C
:104AB00000ED00E0A549000800E100E01815002025
:104AC000034B044A1360DA6822F00402DA6070478C
:104AD000000C00400C5B0020034B044A1360DA68B2
:104AE00042F00402DA607047000C00400C5B0020CA
:104AF00030B5C36891FAA1F4B4FA84F491FAA1F143
:104B00000325B1FA81F16400490005FA04F402FAC0
:104B100001F123EA04031943C16030BD012A02D028
:104B2000022A18BF0022FFF7E3BF00002DE9F04181
:104B30000E46411C044604D13E2245494548FCF737
:104B4000FDFA04F00F08444BC4F3031006F0070706
:104B500053F82850FFF710FE0446836895FAA5F134
:104B6000B1FA81F195FAA5F203204900B2FA82F276
:104B700000FA01F1520023EA0103022101FA02F2D4
:104B80001343A36087425CD8DFE807F0601D021D75
:104B9000B8F1070FC6F303203DD9626A2B0A93FAD6
:104BA000A3F1B1FA81F193FAA3F34FF00F0EB3FA28
:104BB00083F389009B000EFA01F100FA03F322EA65
:104BC0000102134363623B46226895FAA5F0B0FAEE
:104BD00080F095FAA5F14FF0030EB1FA81F1400093
:104BE000013F49000EFA00F0012F03FA01F322EA17
:104BF000000243EA0203236005D8636832074CBF12
:104C00002B43AB436360C6F3011229462046BDE83F
:104C1000F041FFF783BF226A95FAA5F3B3FA83F355
:104C200095FAA5F14FF00F0EB1FA81F19B008900C2
:104C30000EFA03F322EA030200FA01F3134323629C
:104C4000C1E7672202490548FCF778FA0023BBE771
:104C50003CA20008E8A10008FCA1000863A200082B
:104C6000431C70B506460D4604D188221B491C48DA
:104C7000FCF764FA06F00F021A4BC6F3031053F860
:104C80002240FFF779FD016804FB04F202EB4203C6
:104C90000B40B3FBF2F3013B012B05D8EB1E022BBB
:104CA000436809D823434360032D08D101222146DC
:104CB000BDE87040FFF732BF23EA04034360012DD3
:104CC000F4D0052D01D0022D01D10222EFE72146BB
:104CD0000022BDE87040FFF70BBF00BF3CA20008F8
:104CE000E8A10008FCA100084368702217495A4354
:104CF00010B504685318545082685A60C2689A60AC
:104D00000269DA6042691A610022A3F852209A61AE
:104D1000DA61A3F85020A3F85A20A3F85820B0F97C
:104D20001A2001320AD108225A611846FFF7C1FA47
:104D300058B10748BDE81040FCF7A4BAB0F91820F4
:104D400001320CBF04220C22EEE710BD8C5700206C
:104D500065A20008426870235343054AD358DA69B4
:104D6000120701D508221A62D869C0F340107047B3
:104D70008C570020426870235343034AD358D869A4
:104D8000C0F3C010704700BF8C57002008B5FFF774
:104D900097FE01210020FEF7C3FCBDE80840FFF7A5
:104DA0009BBE0000054B186830B901221A60044A06
:104DB000044B1A60FFF722BE704700BF1C1500208D
:104DC000000C00400C5B002008B5044B1B680BB9BD
:104DD000FFF7E8FF024B586A08BD00BF1C15002012
:104DE000000C0040084B094A13605863DA6842F02F
:104DF0000202DA605A6A801A002803DC5A6942F01B
:104E000002025A61704700BF000C00400C5B00209A
:104E1000034B044A1360DA6822F00202DA6070473A
:104E2000000C00400C5B0020034B044A13606FF041
:104E300002021A61704700BF000C00400C5B0020AA
:104E400010B502FB01F1FCF771F90446D8B150F836
:104E5000042C22F00302043A242A18D8132A14D965
:104E600000231B2A0360436016D9242A8360C36091
:104E700011BF00F110020361436100F11802002329
:104E8000136053609360204610BD0246F7E700218F
:104E900000F054FF204610BD00F10802EFE700BF0C
:104EA000014B1868704700BF8C02002070B559B1E3
:104EB00005460C4610B1836B002B3CD0636ED807BF
:104EC00005D5B4F90C302BB90026304670BDA38946
:104ED00099053CD52146284600F04AF8E36A064683
:104EE00033B1E169284698470028B8BF4FF0FF3634
:104EF000A3891A0622D4216B41B104F140039942DF
:104F000002D02846FCF716F900232363616C21B117
:104F10002846FCF70FF90023636400F05FF9636E25
:104F20000022DB07A2810ED5A06D00F0EDFA00F0A3
:104F30005BF9304670BD00F025F9BFE721692846CE
:104F4000FCF7F8F8D7E7A06D00F0E2FAECE7A06D07
:104F500000F0DCFAB4F90C30002BBBD1666E16F011
:104F60000106B1D1A06D00F0D3FA304670BD00BF8C
:104F7000B1F90C309AB22DE9F0410D461107804687
:104F80003AD46A6843F40063002AAB816FDDAC6AEF
:104F9000002C49D000229BB2D8F80060C8F800204D
:104FA00013F4805267D02A6D5F0705D569682B6BB3
:104FB000521A0BB1EB6BD21A0023E9694046A047A5
:104FC000441C3CD0B5F90C302A692A6023F40063F4
:104FD0000022AB81DB046A6047D4296BC8F800600B
:104FE00011B305F14003994202D04046FCF7A2F804
:104FF00000202863BDE8F0812E69AEB12C682E60D8
:1050000091070CBF6B690023A41BAB600AE0234629
:1050100032466F6AE9694046B8470028A4EB0004AD
:10502000064404DD002CF2DC0020BDE8F081AB89F1
:1050300043F04003AB814FF0FF30BDE8F081D8F87A
:1050400000401D2CF3D8194BE340DB4313F0010360
:10505000EDD1B5F90C206B6022F400632969AB81B6
:10506000DA042960B9D5002CB7D12865B5E7EA6B19
:10507000002A8CDCD8E70123E9694046A047431C9D
:10508000024602D0AB89AC6A8EE7D8F80030002B1C
:10509000F8D01D2B01D0162B02D1C8F80060C3E751
:1050A000AB8943F04003AB81BDE8F08101004020B3
:1050B00038B50D46044608B1836BBBB1B5F90C0099
:1050C00088B16B6EDB0701D4810517D520462946D0
:1050D000FFF74EFF6B6EDA07044602D4AB899B05DF
:1050E00007D5204638BD0446204638BD00F04AF8B2
:1050F000E4E7A86D00F00CFA204638BDA86D00F07A
:1051000005FAE3E720B1054B01461868FFF7D0BF69
:10511000034B0449186800F0A3B900BF8C020020BB
:1051200080A20008B1500008014900F099B900BF01
:10513000AD4E000810B5002304468181C281036092
:1051400043608360436603614361836119460822BB
:105150005C3000F0F3FD07480749084A084B20621D
:10516000E4616162A262E36204F15800BDE81040AC
:1051700000F0C8B9496100086D610008A961000824
:10518000C961000810B50446124800F0BFF9A26BCF
:10519000D2B904F53B731048C4F8E8320321C4F8CF
:1051A000E022E063C4F8E41260680421FFF7C2FF64
:1051B00001220921A068FFF7BDFF02221221E06849
:1051C000FFF7B8FF0123A3630248BDE8104000F0D9
:1051D0009FB900BF585B002029510008014800F02A
:1051E00095B900BF5C5B0020014800F091B900BF99
:1051F0005C5B0020F8B5244F0C460646FCF749F9E5
:10520000BB685D68C4F57E610F3125F00305294454
:1052100021F47F6121F00F01A1F58054B4F5805F86
:1052200007DB0021304600F07DFFBB682B4498422D
:1052300004D03046FCF731F90020F8BD6142304619
:1052400000F070FF01300DD0104BBA6819682D1BAB
:1052500045F001053046091B55601960FCF71DF942
:105260000120F8BD0021304600F05CFFBA68831AC7
:105270000F2BDEDD064C0549246843F00103001BBB
:1052800053600860D5E700BF2408002020150020E7
:105290002C0C0020002944D02DE9F0410D46804619
:1052A000FCF7F7F855F8047C694927F00103A5F1EC
:1052B0000804E2188E685068B24220F003005ED005
:1052C000FE0750600BD455F8087CE41B01F1080E72
:1052D000A56875453B446DD0E768EF60BD60151863
:1052E0006D68ED073ED543F001026260E350B3F50F
:1052F000007F17D2DB08581C9A104D6851F83070A7
:10530000A7600123934001EBC0022B43083AE260FF
:105310004B6041F83040FC604046BDE8F041FCF78E
:10532000BCB870475A0A042A52D89A0902F13907C0
:10533000FF0002F13805C819CA59083890424FD009
:10534000516821F003018B4232D292689042F7D12A
:10535000C368A060E3609C60C4604046BDE8F04163
:10536000FCF79BB895683B4FBD42034440D0D068E2
:10537000E86043F0010285606260E350B7E7FF0731
:10538000034407D455F8082CA41A1344A068E26813
:10539000C2609060304A126843F00100934260603E
:1053A0008C60B9D32D4B40461968FFF723FFB3E754
:1053B0001046CDE711184968C90744D49168D268EE
:1053C000CA60034443F0010091606060E350A3E7CA
:1053D000142A16D802F15C07FF0002F15B05AAE768
:1053E000AA1001234D6893402B434B600346B0E75E
:1053F00043F001024C610C61E560A5606260E3501E
:105400008AE7542A06D81A0B02F16F07FF0002F14F
:105410006E0590E7B2F5AA7F06D8DA0B02F178079D
:10542000FF0002F1770586E740F25450824206D829
:105430009A0C02F17D07FF0002F17C057BE74FF437
:105440007E777E2577E743F001016160136063E7B3
:10545000240800202C080020300C002050150020CB
:105460002DE9F84310F538771FD0884606464FF0EF
:1054700000097D68BC68013D11D4A389012B05F1A9
:10548000FF3508D9B4F90E3001332146304602D039
:10549000C04749EA00096B1C04F16804EDD13F687C
:1054A000002FE6D14846BDE8F883B9464846BDE836
:1054B000F88300BF70B50F4E0F4D761BB61018BFA6
:1054C000002405D0013455F8043B9847A642F9D191
:1054D0000A4E0B4D761B04F043FBB61018BF002498
:1054E00006D0013455F8043B9847A642F9D170BD67
:1054F00070BD00BF340C0020340C0020400C002094
:10550000340C0020704700BF704700BF704700BFD9
:10551000704700BF2DE9F04F01F10B06162E83B046
:10552000054640F29E8036F0070600F1BD80B1428C
:1055300000F2BA80FBF7ADFFB6F5FC7FC0F09382B6
:10554000730A00F0B880042B00F27981B30903F1EB
:10555000390003F1380EC300BF4F3B44A3F10801EB
:105560005C68A14206D10CE0002A80F2AA80E468BF
:10557000A14206D0636823F003039A1B0F2AF3DDD0
:1055800070463C69DFF8E4E2744500F0AB81636883
:1055900023F003039A1B0F2A00F39081002AC7F817
:1055A00014E0C7F810E080F29D80B3F5007F80F032
:1055B0006181DB0803F1010C99107A6857F83C808F
:1055C000C4F8088001238B4007EBCC011343083952
:1055D000E1607B6047F83C40C8F80C408210012431
:1055E00094409C4200F28B801C4206D120F00300C4
:1055F00064001C4200F10400FAD007EBC009CC465D
:105600008046DCF80C309C4507D16DE1002A80F221
:105610007B81DB689C4500F06781596821F00301BC
:105620008A1B0F2AF2DDD3F80CC0D3F80880009350
:105630009C19284646F0010642F001055E60C8F854
:105640000CC0CCF808807C613C61C4F80CE0C4F864
:1056500008E065605A50FBF720FF009B03F1080447
:105660001EE0102920D8FBF714FF10261823022073
:10567000794F3B44A3F108025C68944200F03D81FD
:105680006368E168A66823F00303234428465A6848
:10569000F16042F001028E605A60FBF7FEFE0834B2
:1056A000204603B0BDE8F08F00240C2320462B6079
:1056B00003B0BDE8F08F40204FF400734FF03F0E71
:1056C0004AE72344E1685A68A66842F00102F160A3
:1056D00028468E605A60FBF7E0FE0834204603B08F
:1056E000BDE8F08F234428465A6842F001025A6010
:1056F000FBF7D3FE0834204603B0BDE8F08FBC684A
:10570000636823F00308B04504D3A8EB06030F2B0E
:1057100000F38580DFF85891504BD9F800201B68C2
:105720000132334404EB080A00F0558103F580533D
:105730000F3323F47F6B2BF00F0B5946284600F0F4
:10574000F1FC411C024600F0FC80824500F2F7802B
:10575000434B19685944196000F04D81D9F8000095
:1057600001301BBFA2EB0A0A5144C9F8002019609E
:1057700012F0070100F01581C1F10800C1F5805158
:105780000244083102EB0B09C9F30B09A1EB09092B
:10579000494628460193009200F0C4FC431C9DE852
:1057A0000C0000F04381801A484440F00100196861
:1057B000BA604944BC425060196017D0B8F10F0F6D
:1057C00040F2FB806068A8F10C0222F0070204EBB3
:1057D000020E00F001004FF0050C10430F2A60602C
:1057E000CEF804C0CEF808C000F217811D4BBC688B
:1057F0001A68914288BF19601B4B1A68914262680F
:1058000088BF196022F003029642A2EB060301D87A
:105810000F2B04DC2846FBF740FE002440E7A219CA
:1058200043F0010346F0010666602846BA60536003
:10583000FBF733FE0834204603B0BDE8F08F142B8D
:1058400071D9542B00F2A380330B03F16F0003F1E5
:105850006E0EC30080E600BF240800205015002013
:1058600020150020481500204C1500202C08002091
:105870002C0C00205A0A042A5BD9142A00F2AE80AC
:1058800002F15C01C9005B3207EB010C7958ACF105
:10589000080C8C4500F088804A6822F0030293428D
:1058A00073D289688C45F7D1DCF80C207B68E26004
:1058B000C4F808C09460CCF80C408FE6A11946F0FB
:1058C000010C42F00106C4F804C028467961396130
:1058D000C1F80CE0C1F808E04E60E250FBF7DDFDD6
:1058E0000834DDE67B6879E608F1010818F0030F5B
:1058F0000CF1080C7FF485AE2DE0DC68A34208BFF4
:1059000002303FF43EAEBBE619441C464A68DB68F1
:1059100054F8086F42F001024A602846F3609E6026
:10592000FBF7BBFDBCE603F15C0003F15B0EC300BB
:1059300012E69A0902F13901C9003832A4E7BC42E3
:1059400054D0BC68626822F003025DE759F8083958
:10595000994540F0868010F0030F00F1FF30F5D13B
:105960007B6823EA04037B6064009C423FF6C7AE79
:10597000002C3FF4C4AE1C4240467FF43EAE6400AF
:105980001C4200F10400FAD037E68C468CE7B3F5F0
:10599000AA7F15D8F30B03F1780003F1770EC3004B
:1059A000DAE54FF48051EDE67B689210012101FAAF
:1059B00002F213437B60624679E70123536029E7D3
:1059C00040F25452934222D8B30C03F17D0003F10C
:1059D0007C0EC300C0E503F1100BAEE6542A29D8B3
:1059E0001A0B02F16F01C9006E324DE7204B1968A6
:1059F00059441960B2E6CAF30B0000287FF4AEAE3A
:105A000008EB0B03BA6843F001035360EEE67F2016
:105A10004FF47E734FF07E0E9EE504F10801284698
:105A20000093FBF787FB009B1968DFE601204FF02E
:105A30000009BCE6B2F5AA7F05D8DA0B02F17801BD
:105A4000C900773220E740F254518A4205D89A0CB7
:105A500002F17D01C9007C3216E74FF47E717E228F
:105A600012E77B6880E7F00806F1080300E600BF54
:105A70002015002082B049B15AB16BB113780B6088
:105A80001278101C18BF012002B0704701A9002A2B
:105A9000F3D1104602B070476FF00100F4E700BF89
:105AA00001F0FF01102A2BDB10F0070F08D010F8CF
:105AB000013B013A8B422DD010F0070F42B3F6D1D3
:105AC000F0B441EA012141EA014122F007047FF0EC
:105AD00000070023F0E80256083C85EA010586EA43
