:100000000C9434000C9451000C9451000C94510049
:100010000C9451000C9451000C9451000C9451001C
:100020000C9451000C9451000C9451000C9451000C
:100030000C9451000C9451000C9451000C945100FC
:100040000C9451000C9451000C9451000C945100EC
:100050000C9451000C9451000C9451000C945100DC
:100060000C9451000C94510011241FBECFEFD8E026
:10007000DEBFCDBF11E0A0E0B1E0E6E8F9E002C0EC
:1000800005900D92A232B107D9F721E0A2E2B1E0CA
:1000900001C01D92A336B207E1F70E94E8000C945C
:1000A000C1040C940000CF93DF93C9E4D1E0EF8941
:1000B000F88DCE0109958D859E85909342018093A0
:1000C000410191FF0DC02DE22093620120E034E058
:1000D000A901481B590B509342014093410103C0B1
:1000E0008BE2809362018091580190915901909325
:1000F00048018093470191FF0DC02DE220934301F9
:1001000020E034E0A901481B590B5093480140936B
:10011000470103C08BE28093430180915A01909183
:100120005B01909345018093440191FF0DC02DE246
:100130002093460120E034E0A901481B590B50935D
:1001400045014093440103C08BE280934601C2E223
:10015000D1E0E989FA8942E060E0CE010995ED89B4
:10016000FE8960916201CE01099560914101709113
:100170004201E98DFA8DCE010995E989FA894AE0B3
:1001800060E0CE010995ED89FE8960914301CE01C1
:1001900009956091470170914801E98DFA8DCE0172
:1001A0000995E989FA8942E061E0CE010995ED8976
:1001B000FE8960914601CE010995609144017091DC
:1001C0004501E98DFA8DCE010995DF91CF91089512
:1001D0000E94040300E020E540E060E082E291E05C
:1001E0000E9417042DE140E060E089E491E00E9464
:1001F000A804C2E2D1E0EF85F889CE010995E0912B
:100200005C01F0915D0189E491E00995E989FA8941
:1002100040E060E0CE010995ED8DFE8D60E171E07A
:10022000CE010995E989FA8948E060E0CE01099597
:10023000ED8DFE8D63E171E0CE010995E989FA89C2
:1002400040E061E0CE010995ED8DFE8D66E171E043
:10025000CE010995E989FA8948E061E0CE01099566
:10026000ED8DFE8D69E171E0CE0109950E9453008C
:1002700084E690E00E940703F9CF94EA9093BC00D3
:10028000ECEBF0E090819923ECF79091B900987F26
:100290009830D9F4880F862B8093BB0084E8809334
:1002A000BC00ECEBF0E080818823ECF79091B90082
:1002B000987F611105C081E0983141F480E0089594
:1002C00081E0903419F480E0089581E0089594EA83
:1002D0009093BC00ECEBF0E090819923ECF79091C7
:1002E000B900987F9031D9F4880F862B8093BB009A
:1002F00084E88093BC00ECEBF0E080818823ECF78D
:100300009091B900987F611105C081E0983141F466
:1003100080E0089581E0903419F480E0089581E050
:10032000089584E98093BC00ECEBF0E0808184FDCB
:10033000FDCF08958093BB0084E88093BC00ECEB74
:10034000F0E080818823ECF79091B900987F81E0FC
:10035000983209F480E00895811104C084E8809304
:10036000BC0003C084EC8093BC00ECEBF0E0808127
:100370008823ECF78091BB009091B9000895E9EBD8
:10038000F0E080818C7F808388E48093B8000895BA
:10039000009741F0EFECF7E03197F1F700C0000073
:1003A0000197C1F70895EF92FF920F931F93CF9398
:1003B000DF937B01142F022F882324F4111112C024
:1003C000D0E01BC020FF05C060E00E946701D82F6D
:1003D00004C060E00E943D01D82FDD2379F30E9424
:1003E00091010EC0C0E0F70180810E949A01D82FD0
:1003F000811103C0CF5FC113F6CF01FF0E949101AD
:100400008D2FDF91CF911F910F91FF90EF90089565
:10041000BF92CF92DF92EF92FF920F931F93CF93F1
:10042000DF9300D0CDB7DEB78C017B016A01B22E1D
:100430006A83FC0180818823A1F09181937021E07F
:1004400030E002C0220F331F9A95E2F7298320E0A3
:1004500041E0BE016F5F7F4F0E94D301898381110C
:100460001AC0EF20E09471F022E041E0BE016E5F1F
:100470007F4FF80182810E94D30181110CC08FEF60
:10048000898303C0F8018281898320E04B2DB60166
:1004900089810E94D3010F900F90DF91CF911F911E
:1004A0000F91FF90EF90DF90CF90BF900895CF9382
:1004B000DF931F92CDB7DEB7498321E0AE014F5FD6
:1004C0005F4F0E9408020F90DF91CF910895AF9285
:1004D000BF92CF92DF92EF92FF920F931F93CF9331
:1004E000DF9300D0CDB7DEB78C015B016A01F22E3D
:1004F0006983FC0180818823A1F09181937021E0C0
:1005000030E002C0220F331F9A95E2F72A8320E0E1
:1005100041E0BE016E5F7F4F0E94D3018A8381114B
:100520004AC0AB20A09409F441C022E041E0BE01E2
:100530006F5F7F4FF80182810E94D3018A838823F5
:1005400059F139C0112321F00E949101812F33C04C
:10055000F1E0FF1598F48601FA94FA942F2D30E01B
:100560002F5F3F4FC20ED31E760181E00E94AC0187
:10057000F80181938F01EE15FF05B9F780E00E9425
:10058000AC01F60180830E94910180E014C061E01B
:100590000E946701182FD6CFF80182818823BCF70B
:1005A000D7CF61E00E943D01182FCCCFF8018281A6
:1005B0008823BCF7CDCF0F900F90DF91CF911F9183
:1005C0000F91FF90EF90DF90CF90BF90AF90089584
:1005D00021E00E94670208950F93FC01608341832C
:1005E0002283038388E092E09583848387E592E009
:1005F0009783868387E692E09187808788EE92E0F2
:10060000938782870F9108950E94BF0108950E94E9
:10061000C8010895FC014F704487617065876111BE
:1006200002C0168602C080E486878685482B4687EE
:1006300008950F931F93CF93DF93EC01162F6A3029
:1006400041F06D3069F440E06D850E940A0300E0DE
:1006500020C06D856F5F40E00E940A0300E019C072
:100660004E854068EE81FF8160E070E00995082FBB
:100670008F3F79F0EE81FF81412F60E870E0CE017D
:100680000995082F4C854F5FE989FA896D85CE0160
:100690000995802FDF91CF911F910F9108950F93AE
:1006A0001F93CF93DF938C01C62FA62FA295AF7017
:1006B000B0E0A050BF4FFC01258936896C91F9014B
:1006C00009958F3F59F0CF70AC2FB0E0A050BF4FCD
:1006D000E801ED89FE896C91C8010995DF91CF9100
:1006E0001F910F9108951F93CF93DF93EC01162F65
:1006F000EF89F88D672F09958F3F29F0EF89F88DE5
:10070000612FCE010995DF91CF911F9108950F932D
:100710001F93CF93DF938C01EB0180E009C0D801D8
:100720005596ED91FC915697C80109958F3F19F0A8
:1007300069916111F4CFDF91CF911F910F910895CD
:100740000F931F93CF93DF938C01EB0180E009C0DF
:10075000D8015596ED91FC915697C80109958F3FA8
:1007600019F069916111F4CFDF91CF911F910F9131
:1007700008951F93CF93DF93EC01EE81FF8141E059
:1007800060E070E00995182F8F3F51F085E090E010
:100790000E940703E989FA8940E060E0CE010995EB
:1007A000812FDF91CF911F910895CF93DF93EC01BB
:1007B0008FE090E00E940703EE81FF8148E360E054
:1007C00070E0CE0109958F3F79F185E090E00E94BD
:1007D0000703EE81FF814CE060E070E0CE010995F7
:1007E0008F3F11F185E090E00E940703EE81FF81C9
:1007F00041E060E070E0CE0109958F3FA9F085E00F
:1008000090E00E940703EE81FF8142E060E070E02B
:10081000CE0109958F3F41F085E090E00E940703EB
:10082000EB89FC89CE010995DF91CF9108950F9353
:10083000FC011486158685ED93E0908B87878AE00E
:1008400093E0928B818B89EB93E0948B838B89E18E
:1008500093E0968B858B8FE493E0908F878B83E773
:1008600093E0928F818F87E893E0948F838F80EA63
:1008700093E0968F858FCF010E94EC020F9108952F
:10088000DC011696ED91FC91179748E06DE270E05F
:1008900009950895AC01445F5F4FDC011A96ED9114
:1008A000FC911B9760E070E0099508950F931F93EA
:1008B000CF93DF9300D0CDB7DEB78C01DC01189663
:1008C000ED91FC91199722E0AE014F5F5F4F62E31B
:1008D00070E009958A81837090E0982F882729819C
:1008E000822BF801968785870084F185E02D22E030
:1008F000AE014F5F5F4F64E370E0C80109958A81E4
:10090000837090E0982F88272981822BD8015096F8
:100910009C938E931F971896ED91FC91199722E066
:10092000AE014F5F5F4F66E370E0C80109958A81B1
:10093000837090E0982F88272981822BF801928B71
:10094000818B0F900F90DF91CF911F910F910895A0
:100950000F93FC0116861586108A1786128A118A53
:1009600080E494E0948B838B8AE494E0968B858B6F
:1009700086E594E0908F878BCF010E94EC020F9167
:060980000895F894FFCF7A
:1009860030313233343536373839414243444546BF
:10099600583A00593A005A3A004144584C333435D3
:0209A60000004F
:00000001FF
